{
  "_format": "hh-sol-artifact-1",
  "contractName": "ImpactTracker",
  "sourceName": "contracts/Regens.sol",
  "abi": [
    {
      "inputs": [],
      "stateMutability": "nonpayable",
      "type": "constructor"
    },
    {
      "inputs": [],
      "name": "AccessControlBadConfirmation",
      "type": "error"
    },
    {
      "inputs": [
        {
          "internalType": "address",
          "name": "account",
          "type": "address"
        },
        {
          "internalType": "bytes32",
          "name": "neededRole",
          "type": "bytes32"
        }
      ],
      "name": "AccessControlUnauthorizedAccount",
      "type": "error"
    },
    {
      "anonymous": false,
      "inputs": [
        {
          "indexed": true,
          "internalType": "uint256",
          "name": "farmId",
          "type": "uint256"
        },
        {
          "indexed": false,
          "internalType": "string",
          "name": "metricType",
          "type": "string"
        },
        {
          "indexed": false,
          "internalType": "int256",
          "name": "value",
          "type": "int256"
        },
        {
          "indexed": false,
          "internalType": "string",
          "name": "source",
          "type": "string"
        }
      ],
      "name": "MetricRecorded",
      "type": "event"
    },
    {
      "anonymous": false,
      "inputs": [
        {
          "indexed": false,
          "internalType": "string",
          "name": "name",
          "type": "string"
        },
        {
          "indexed": false,
          "internalType": "uint256",
          "name": "weight",
          "type": "uint256"
        }
      ],
      "name": "MetricTypeAdded",
      "type": "event"
    },
    {
      "anonymous": false,
      "inputs": [
        {
          "indexed": true,
          "internalType": "uint256",
          "name": "farmId",
          "type": "uint256"
        },
        {
          "indexed": true,
          "internalType": "uint256",
          "name": "metricId",
          "type": "uint256"
        },
        {
          "indexed": false,
          "internalType": "address",
          "name": "verifier",
          "type": "address"
        }
      ],
      "name": "MetricVerified",
      "type": "event"
    },
    {
      "anonymous": false,
      "inputs": [
        {
          "indexed": true,
          "internalType": "bytes32",
          "name": "role",
          "type": "bytes32"
        },
        {
          "indexed": true,
          "internalType": "bytes32",
          "name": "previousAdminRole",
          "type": "bytes32"
        },
        {
          "indexed": true,
          "internalType": "bytes32",
          "name": "newAdminRole",
          "type": "bytes32"
        }
      ],
      "name": "RoleAdminChanged",
      "type": "event"
    },
    {
      "anonymous": false,
      "inputs": [
        {
          "indexed": true,
          "internalType": "bytes32",
          "name": "role",
          "type": "bytes32"
        },
        {
          "indexed": true,
          "internalType": "address",
          "name": "account",
          "type": "address"
        },
        {
          "indexed": true,
          "internalType": "address",
          "name": "sender",
          "type": "address"
        }
      ],
      "name": "RoleGranted",
      "type": "event"
    },
    {
      "anonymous": false,
      "inputs": [
        {
          "indexed": true,
          "internalType": "bytes32",
          "name": "role",
          "type": "bytes32"
        },
        {
          "indexed": true,
          "internalType": "address",
          "name": "account",
          "type": "address"
        },
        {
          "indexed": true,
          "internalType": "address",
          "name": "sender",
          "type": "address"
        }
      ],
      "name": "RoleRevoked",
      "type": "event"
    },
    {
      "anonymous": false,
      "inputs": [
        {
          "indexed": false,
          "internalType": "string",
          "name": "metricType",
          "type": "string"
        },
        {
          "indexed": false,
          "internalType": "address",
          "name": "source",
          "type": "address"
        },
        {
          "indexed": false,
          "internalType": "bool",
          "name": "status",
          "type": "bool"
        }
      ],
      "name": "SourceAuthorized",
      "type": "event"
    },
    {
      "inputs": [],
      "name": "AUDITOR_ROLE",
      "outputs": [
        {
          "internalType": "bytes32",
          "name": "",
          "type": "bytes32"
        }
      ],
      "stateMutability": "view",
      "type": "function"
    },
    {
      "inputs": [],
      "name": "DATA_PROVIDER_ROLE",
      "outputs": [
        {
          "internalType": "bytes32",
          "name": "",
          "type": "bytes32"
        }
      ],
      "stateMutability": "view",
      "type": "function"
    },
    {
      "inputs": [],
      "name": "DEFAULT_ADMIN_ROLE",
      "outputs": [
        {
          "internalType": "bytes32",
          "name": "",
          "type": "bytes32"
        }
      ],
      "stateMutability": "view",
      "type": "function"
    },
    {
      "inputs": [
        {
          "internalType": "string",
          "name": "_name",
          "type": "string"
        },
        {
          "internalType": "uint256",
          "name": "_weight",
          "type": "uint256"
        }
      ],
      "name": "addMetricType",
      "outputs": [],
      "stateMutability": "nonpayable",
      "type": "function"
    },
    {
      "inputs": [
        {
          "internalType": "string",
          "name": "_metricType",
          "type": "string"
        },
        {
          "internalType": "address",
          "name": "_source",
          "type": "address"
        },
        {
          "internalType": "bool",
          "name": "_status",
          "type": "bool"
        }
      ],
      "name": "authorizeSource",
      "outputs": [],
      "stateMutability": "nonpayable",
      "type": "function"
    },
    {
      "inputs": [
        {
          "internalType": "string",
          "name": "",
          "type": "string"
        },
        {
          "internalType": "address",
          "name": "",
          "type": "address"
        }
      ],
      "name": "authorizedSources",
      "outputs": [
        {
          "internalType": "bool",
          "name": "",
          "type": "bool"
        }
      ],
      "stateMutability": "view",
      "type": "function"
    },
    {
      "inputs": [
        {
          "internalType": "uint256",
          "name": "",
          "type": "uint256"
        },
        {
          "internalType": "uint256",
          "name": "",
          "type": "uint256"
        }
      ],
      "name": "farmMetrics",
      "outputs": [
        {
          "internalType": "uint256",
          "name": "farmId",
          "type": "uint256"
        },
        {
          "internalType": "string",
          "name": "metricType",
          "type": "string"
        },
        {
          "internalType": "int256",
          "name": "value",
          "type": "int256"
        },
        {
          "internalType": "uint256",
          "name": "timestamp",
          "type": "uint256"
        },
        {
          "internalType": "string",
          "name": "source",
          "type": "string"
        },
        {
          "internalType": "bool",
          "name": "verified",
          "type": "bool"
        },
        {
          "internalType": "address",
          "name": "verifier",
          "type": "address"
        },
        {
          "internalType": "string",
          "name": "verificationData",
          "type": "string"
        }
      ],
      "stateMutability": "view",
      "type": "function"
    },
    {
      "inputs": [
        {
          "internalType": "uint256",
          "name": "_farmId",
          "type": "uint256"
        }
      ],
      "name": "getMetrics",
      "outputs": [
        {
          "components": [
            {
              "internalType": "uint256",
              "name": "farmId",
              "type": "uint256"
            },
            {
              "internalType": "string",
              "name": "metricType",
              "type": "string"
            },
            {
              "internalType": "int256",
              "name": "value",
              "type": "int256"
            },
            {
              "internalType": "uint256",
              "name": "timestamp",
              "type": "uint256"
            },
            {
              "internalType": "string",
              "name": "source",
              "type": "string"
            },
            {
              "internalType": "bool",
              "name": "verified",
              "type": "bool"
            },
            {
              "internalType": "address",
              "name": "verifier",
              "type": "address"
            },
            {
              "internalType": "string",
              "name": "verificationData",
              "type": "string"
            }
          ],
          "internalType": "struct ImpactTracker.ImpactMetric[]",
          "name": "",
          "type": "tuple[]"
        }
      ],
      "stateMutability": "view",
      "type": "function"
    },
    {
      "inputs": [
        {
          "internalType": "bytes32",
          "name": "role",
          "type": "bytes32"
        }
      ],
      "name": "getRoleAdmin",
      "outputs": [
        {
          "internalType": "bytes32",
          "name": "",
          "type": "bytes32"
        }
      ],
      "stateMutability": "view",
      "type": "function"
    },
    {
      "inputs": [
        {
          "internalType": "bytes32",
          "name": "role",
          "type": "bytes32"
        },
        {
          "internalType": "address",
          "name": "account",
          "type": "address"
        }
      ],
      "name": "grantRole",
      "outputs": [],
      "stateMutability": "nonpayable",
      "type": "function"
    },
    {
      "inputs": [
        {
          "internalType": "bytes32",
          "name": "role",
          "type": "bytes32"
        },
        {
          "internalType": "address",
          "name": "account",
          "type": "address"
        }
      ],
      "name": "hasRole",
      "outputs": [
        {
          "internalType": "bool",
          "name": "",
          "type": "bool"
        }
      ],
      "stateMutability": "view",
      "type": "function"
    },
    {
      "inputs": [
        {
          "internalType": "uint256",
          "name": "",
          "type": "uint256"
        }
      ],
      "name": "impactScores",
      "outputs": [
        {
          "internalType": "uint256",
          "name": "",
          "type": "uint256"
        }
      ],
      "stateMutability": "view",
      "type": "function"
    },
    {
      "inputs": [
        {
          "internalType": "string",
          "name": "",
          "type": "string"
        }
      ],
      "name": "metricTypes",
      "outputs": [
        {
          "internalType": "string",
          "name": "name",
          "type": "string"
        },
        {
          "internalType": "uint256",
          "name": "weight",
          "type": "uint256"
        },
        {
          "internalType": "bool",
          "name": "active",
          "type": "bool"
        }
      ],
      "stateMutability": "view",
      "type": "function"
    },
    {
      "inputs": [
        {
          "internalType": "uint256",
          "name": "_farmId",
          "type": "uint256"
        },
        {
          "internalType": "string",
          "name": "_metricType",
          "type": "string"
        },
        {
          "internalType": "int256",
          "name": "_value",
          "type": "int256"
        },
        {
          "internalType": "string",
          "name": "_source",
          "type": "string"
        }
      ],
      "name": "recordMetric",
      "outputs": [],
      "stateMutability": "nonpayable",
      "type": "function"
    },
    {
      "inputs": [
        {
          "internalType": "bytes32",
          "name": "role",
          "type": "bytes32"
        },
        {
          "internalType": "address",
          "name": "callerConfirmation",
          "type": "address"
        }
      ],
      "name": "renounceRole",
      "outputs": [],
      "stateMutability": "nonpayable",
      "type": "function"
    },
    {
      "inputs": [
        {
          "internalType": "bytes32",
          "name": "role",
          "type": "bytes32"
        },
        {
          "internalType": "address",
          "name": "account",
          "type": "address"
        }
      ],
      "name": "revokeRole",
      "outputs": [],
      "stateMutability": "nonpayable",
      "type": "function"
    },
    {
      "inputs": [
        {
          "internalType": "bytes4",
          "name": "interfaceId",
          "type": "bytes4"
        }
      ],
      "name": "supportsInterface",
      "outputs": [
        {
          "internalType": "bool",
          "name": "",
          "type": "bool"
        }
      ],
      "stateMutability": "view",
      "type": "function"
    },
    {
      "inputs": [
        {
          "internalType": "uint256",
          "name": "_farmId",
          "type": "uint256"
        },
        {
          "internalType": "uint256",
          "name": "_metricId",
          "type": "uint256"
        },
        {
          "internalType": "string",
          "name": "_verificationData",
          "type": "string"
        }
      ],
      "name": "verifyMetric",
      "outputs": [],
      "stateMutability": "nonpayable",
      "type": "function"
    }
  ],
  "bytecode": "0x60806040523480156200001157600080fd5b50620000276000801b336200006160201b60201c565b506200005a7f59a1c48e5837ad7a7f3dcedcbe129bf3249ec4fbf651fd4f5e2600ead39fe2f5336200006160201b60201c565b50620001d6565b60006200007583836200016460201b60201c565b6200015957600160008085815260200190815260200160002060000160008473ffffffffffffffffffffffffffffffffffffffff1673ffffffffffffffffffffffffffffffffffffffff16815260200190815260200160002060006101000a81548160ff021916908315150217905550620000f5620001ce60201b60201c565b73ffffffffffffffffffffffffffffffffffffffff168273ffffffffffffffffffffffffffffffffffffffff16847f2f8788117e7eff1d82e926ec794901d17c78024a50270940304540a733656f0d60405160405180910390a4600190506200015e565b600090505b92915050565b600080600084815260200190815260200160002060000160008373ffffffffffffffffffffffffffffffffffffffff1673ffffffffffffffffffffffffffffffffffffffff16815260200190815260200160002060009054906101000a900460ff16905092915050565b600033905090565b612a0f80620001e66000396000f3fe608060405234801561001057600080fd5b50600436106101165760003560e01c80638413d18f116100a25780639b2ae3b0116100715780639b2ae3b01461031e578063a002609b14610350578063a217fddf1461036c578063bc18609c1461038a578063d547741f146103a657610116565b80638413d18f1461028657806391d14854146102a25780639268d01f146102d25780639a8e4495146102ee57610116565b8063248a9ca3116100e9578063248a9ca3146101e25780632f2ff15d1461021257806336568abe1461022e5780633aeae31d1461024a5780636e1d616e1461026857610116565b80630156ddc21461011b57806301aaba131461014b57806301ffc9a71461017b57806319c1c7c3146101ab575b600080fd5b6101356004803603810190610130919061178e565b6103c2565b60405161014291906117ca565b60405180910390f35b61016560048036038101906101609190611989565b6103da565b6040516101729190611a00565b60405180910390f35b61019560048036038101906101909190611a73565b61041f565b6040516101a29190611a00565b60405180910390f35b6101c560048036038101906101c09190611aa0565b610499565b6040516101d9989796959493929190611b87565b60405180910390f35b6101fc60048036038101906101f79190611c50565b6106c3565b6040516102099190611c8c565b60405180910390f35b61022c60048036038101906102279190611ca7565b6106e2565b005b61024860048036038101906102439190611ca7565b610704565b005b61025261077f565b60405161025f9190611c8c565b60405180910390f35b6102706107a3565b60405161027d9190611c8c565b60405180910390f35b6102a0600480360381019061029b9190611ce7565b6107c7565b005b6102bc60048036038101906102b79190611ca7565b6108f5565b6040516102c99190611a00565b60405180910390f35b6102ec60048036038101906102e79190611d6f565b61095f565b005b6103086004803603810190610303919061178e565b610a8e565b6040516103159190611fe4565b60405180910390f35b61033860048036038101906103339190612006565b610d46565b6040516103479392919061204f565b60405180910390f35b61036a600480360381019061036591906120b9565b610e1b565b005b61037461110f565b6040516103819190611c8c565b60405180910390f35b6103a4600480360381019061039f9190612158565b611116565b005b6103c060048036038101906103bb9190611ca7565b6112dc565b005b60026020528060005260406000206000915090505481565b6004828051602081018201805184825260208301602085012081835280955050505050506020528060005260406000206000915091509054906101000a900460ff1681565b60007f7965db0b000000000000000000000000000000000000000000000000000000007bffffffffffffffffffffffffffffffffffffffffffffffffffffffff1916827bffffffffffffffffffffffffffffffffffffffffffffffffffffffff191614806104925750610491826112fe565b5b9050919050565b600160205281600052604060002081815481106104b557600080fd5b9060005260206000209060070201600091509150508060000154908060010180546104df906121f6565b80601f016020809104026020016040519081016040528092919081815260200182805461050b906121f6565b80156105585780601f1061052d57610100808354040283529160200191610558565b820191906000526020600020905b81548152906001019060200180831161053b57829003601f168201915b505050505090806002015490806003015490806004018054610579906121f6565b80601f01602080910402602001604051908101604052809291908181526020018280546105a5906121f6565b80156105f25780601f106105c7576101008083540402835291602001916105f2565b820191906000526020600020905b8154815290600101906020018083116105d557829003601f168201915b5050505050908060050160009054906101000a900460ff16908060050160019054906101000a900473ffffffffffffffffffffffffffffffffffffffff1690806006018054610640906121f6565b80601f016020809104026020016040519081016040528092919081815260200182805461066c906121f6565b80156106b95780601f1061068e576101008083540402835291602001916106b9565b820191906000526020600020905b81548152906001019060200180831161069c57829003601f168201915b5050505050905088565b6000806000838152602001908152602001600020600101549050919050565b6106eb826106c3565b6106f481611368565b6106fe838361137c565b50505050565b61070c61146d565b73ffffffffffffffffffffffffffffffffffffffff168173ffffffffffffffffffffffffffffffffffffffff1614610770576040517f6697b23200000000000000000000000000000000000000000000000000000000815260040160405180910390fd5b61077a8282611475565b505050565b7fb6f6b279a7a4e2aa16012cbd36fcdc1fbdb91b92fd6dab57885c9de496473a8d81565b7f59a1c48e5837ad7a7f3dcedcbe129bf3249ec4fbf651fd4f5e2600ead39fe2f581565b6000801b6107d481611368565b60006003846040516107e69190612263565b90815260200160405180910390206001015414610838576040517f08c379a000000000000000000000000000000000000000000000000000000000815260040161082f906122c6565b60405180910390fd5b6040518060600160405280848152602001838152602001600115158152506003846040516108669190612263565b908152602001604051809103902060008201518160000190816108899190612492565b506020820151816001015560408201518160020160006101000a81548160ff0219169083151502179055509050507f794f6e6e869e876a50b98690dfdfe777a7462e90a8d864febdcbd3907a2a8a4e83836040516108e8929190612564565b60405180910390a1505050565b600080600084815260200190815260200160002060000160008373ffffffffffffffffffffffffffffffffffffffff1673ffffffffffffffffffffffffffffffffffffffff16815260200190815260200160002060009054906101000a900460ff16905092915050565b6000801b61096c81611368565b60038460405161097c9190612263565b908152602001604051809103902060020160009054906101000a900460ff166109da576040517f08c379a00000000000000000000000000000000000000000000000000000000081526004016109d1906125e0565b60405180910390fd5b816004856040516109eb9190612263565b908152602001604051809103902060008573ffffffffffffffffffffffffffffffffffffffff1673ffffffffffffffffffffffffffffffffffffffff16815260200190815260200160002060006101000a81548160ff0219169083151502179055507f80ebc205542da1e44dd9bc77abe42bb7691caf9936005e2e30d3793c22d35177848484604051610a8093929190612600565b60405180910390a150505050565b606060016000838152602001908152602001600020805480602002602001604051908101604052809291908181526020016000905b82821015610d3b57838290600052602060002090600702016040518061010001604052908160008201548152602001600182018054610b01906121f6565b80601f0160208091040260200160405190810160405280929190818152602001828054610b2d906121f6565b8015610b7a5780601f10610b4f57610100808354040283529160200191610b7a565b820191906000526020600020905b815481529060010190602001808311610b5d57829003601f168201915b505050505081526020016002820154815260200160038201548152602001600482018054610ba7906121f6565b80601f0160208091040260200160405190810160405280929190818152602001828054610bd3906121f6565b8015610c205780601f10610bf557610100808354040283529160200191610c20565b820191906000526020600020905b815481529060010190602001808311610c0357829003601f168201915b505050505081526020016005820160009054906101000a900460ff161515151581526020016005820160019054906101000a900473ffffffffffffffffffffffffffffffffffffffff1673ffffffffffffffffffffffffffffffffffffffff1673ffffffffffffffffffffffffffffffffffffffff168152602001600682018054610caa906121f6565b80601f0160208091040260200160405190810160405280929190818152602001828054610cd6906121f6565b8015610d235780601f10610cf857610100808354040283529160200191610d23565b820191906000526020600020905b815481529060010190602001808311610d0657829003601f168201915b50505050508152505081526020019060010190610ac3565b505050509050919050565b600381805160208101820180518482526020830160208501208183528095505050505050600091509050806000018054610d7f906121f6565b80601f0160208091040260200160405190810160405280929190818152602001828054610dab906121f6565b8015610df85780601f10610dcd57610100808354040283529160200191610df8565b820191906000526020600020905b815481529060010190602001808311610ddb57829003601f168201915b5050505050908060010154908060020160009054906101000a900460ff16905083565b7fb6f6b279a7a4e2aa16012cbd36fcdc1fbdb91b92fd6dab57885c9de496473a8d610e4581611368565b600384604051610e559190612263565b908152602001604051809103902060020160009054906101000a900460ff16610eb3576040517f08c379a0000000000000000000000000000000000000000000000000000000008152600401610eaa906125e0565b60405180910390fd5b600484604051610ec39190612263565b908152602001604051809103902060003373ffffffffffffffffffffffffffffffffffffffff1673ffffffffffffffffffffffffffffffffffffffff16815260200190815260200160002060009054906101000a900460ff16610f5b576040517f08c379a0000000000000000000000000000000000000000000000000000000008152600401610f529061268a565b60405180910390fd5b60016000868152602001908152602001600020604051806101000160405280878152602001868152602001858152602001428152602001848152602001600015158152602001600073ffffffffffffffffffffffffffffffffffffffff1681526020016040518060200160405280600081525081525090806001815401808255809150506001900390600052602060002090600702016000909190919091506000820151816000015560208201518160010190816110199190612492565b50604082015181600201556060820151816003015560808201518160040190816110439190612492565b5060a08201518160050160006101000a81548160ff02191690831515021790555060c08201518160050160016101000a81548173ffffffffffffffffffffffffffffffffffffffff021916908373ffffffffffffffffffffffffffffffffffffffff16021790555060e08201518160060190816110c09190612492565b505050847fe9ee9b14b5649ae0ef06c544d63ba625a23ee79267f4702bedb5ad7d0f15fbcc8585856040516110f7939291906126aa565b60405180910390a261110885611567565b5050505050565b6000801b81565b7f59a1c48e5837ad7a7f3dcedcbe129bf3249ec4fbf651fd4f5e2600ead39fe2f561114081611368565b60016000858152602001908152602001600020805490508310611198576040517f08c379a000000000000000000000000000000000000000000000000000000000815260040161118f9061273b565b60405180910390fd5b60006001600086815260200190815260200160002084815481106111bf576111be61275b565b5b906000526020600020906007020190508060050160009054906101000a900460ff1615611221576040517f08c379a0000000000000000000000000000000000000000000000000000000008152600401611218906127d6565b60405180910390fd5b60018160050160006101000a81548160ff021916908315150217905550338160050160016101000a81548173ffffffffffffffffffffffffffffffffffffffff021916908373ffffffffffffffffffffffffffffffffffffffff160217905550828160060190816112929190612492565b5083857fe3db484fdca622340edf9817cbf04552079b62b5ff8aad89c5f3180a6ee7532f336040516112c491906127f6565b60405180910390a36112d585611567565b5050505050565b6112e5826106c3565b6112ee81611368565b6112f88383611475565b50505050565b60007f01ffc9a7000000000000000000000000000000000000000000000000000000007bffffffffffffffffffffffffffffffffffffffffffffffffffffffff1916827bffffffffffffffffffffffffffffffffffffffffffffffffffffffff1916149050919050565b6113798161137461146d565b6116f3565b50565b600061138883836108f5565b61146257600160008085815260200190815260200160002060000160008473ffffffffffffffffffffffffffffffffffffffff1673ffffffffffffffffffffffffffffffffffffffff16815260200190815260200160002060006101000a81548160ff0219169083151502179055506113ff61146d565b73ffffffffffffffffffffffffffffffffffffffff168273ffffffffffffffffffffffffffffffffffffffff16847f2f8788117e7eff1d82e926ec794901d17c78024a50270940304540a733656f0d60405160405180910390a460019050611467565b600090505b92915050565b600033905090565b600061148183836108f5565b1561155c57600080600085815260200190815260200160002060000160008473ffffffffffffffffffffffffffffffffffffffff1673ffffffffffffffffffffffffffffffffffffffff16815260200190815260200160002060006101000a81548160ff0219169083151502179055506114f961146d565b73ffffffffffffffffffffffffffffffffffffffff168273ffffffffffffffffffffffffffffffffffffffff16847ff6391f5c32d9c69d2a47ea670b442974b53935d1edc7fd64eb21e047a839171b60405160405180910390a460019050611561565b600090505b92915050565b600080600060016000858152602001908152602001600020905060005b81805490508110156116bf578181815481106115a3576115a261275b565b5b906000526020600020906007020160050160009054906101000a900460ff16156116b257600060038383815481106115de576115dd61275b565b5b90600052602060002090600702016001016040516115fc9190612894565b908152602001604051809103902090508060020160009054906101000a900460ff16156116b0576000808484815481106116395761163861275b565b5b9060005260206000209060070201600201541261167a578383815481106116635761166261275b565b5b90600052602060002090600702016002015461167d565b60005b905081600101548161168f91906128da565b8661169a919061291c565b95508160010154856116ac919061291c565b9450505b505b8080600101915050611584565b5060008211156116ed5781836116d5919061297f565b60026000868152602001908152602001600020819055505b50505050565b6116fd82826108f5565b6117405780826040517fe2517d3f0000000000000000000000000000000000000000000000000000000081526004016117379291906129b0565b60405180910390fd5b5050565b6000604051905090565b600080fd5b600080fd5b6000819050919050565b61176b81611758565b811461177657600080fd5b50565b60008135905061178881611762565b92915050565b6000602082840312156117a4576117a361174e565b5b60006117b284828501611779565b91505092915050565b6117c481611758565b82525050565b60006020820190506117df60008301846117bb565b92915050565b600080fd5b600080fd5b6000601f19601f8301169050919050565b7f4e487b7100000000000000000000000000000000000000000000000000000000600052604160045260246000fd5b611838826117ef565b810181811067ffffffffffffffff8211171561185757611856611800565b5b80604052505050565b600061186a611744565b9050611876828261182f565b919050565b600067ffffffffffffffff82111561189657611895611800565b5b61189f826117ef565b9050602081019050919050565b82818337600083830152505050565b60006118ce6118c98461187b565b611860565b9050828152602081018484840111156118ea576118e96117ea565b5b6118f58482856118ac565b509392505050565b600082601f830112611912576119116117e5565b5b81356119228482602086016118bb565b91505092915050565b600073ffffffffffffffffffffffffffffffffffffffff82169050919050565b60006119568261192b565b9050919050565b6119668161194b565b811461197157600080fd5b50565b6000813590506119838161195d565b92915050565b600080604083850312156119a05761199f61174e565b5b600083013567ffffffffffffffff8111156119be576119bd611753565b5b6119ca858286016118fd565b92505060206119db85828601611974565b9150509250929050565b60008115159050919050565b6119fa816119e5565b82525050565b6000602082019050611a1560008301846119f1565b92915050565b60007fffffffff0000000000000000000000000000000000000000000000000000000082169050919050565b611a5081611a1b565b8114611a5b57600080fd5b50565b600081359050611a6d81611a47565b92915050565b600060208284031215611a8957611a8861174e565b5b6000611a9784828501611a5e565b91505092915050565b60008060408385031215611ab757611ab661174e565b5b6000611ac585828601611779565b9250506020611ad685828601611779565b9150509250929050565b600081519050919050565b600082825260208201905092915050565b60005b83811015611b1a578082015181840152602081019050611aff565b60008484015250505050565b6000611b3182611ae0565b611b3b8185611aeb565b9350611b4b818560208601611afc565b611b54816117ef565b840191505092915050565b6000819050919050565b611b7281611b5f565b82525050565b611b818161194b565b82525050565b600061010082019050611b9d600083018b6117bb565b8181036020830152611baf818a611b26565b9050611bbe6040830189611b69565b611bcb60608301886117bb565b8181036080830152611bdd8187611b26565b9050611bec60a08301866119f1565b611bf960c0830185611b78565b81810360e0830152611c0b8184611b26565b90509998505050505050505050565b6000819050919050565b611c2d81611c1a565b8114611c3857600080fd5b50565b600081359050611c4a81611c24565b92915050565b600060208284031215611c6657611c6561174e565b5b6000611c7484828501611c3b565b91505092915050565b611c8681611c1a565b82525050565b6000602082019050611ca16000830184611c7d565b92915050565b60008060408385031215611cbe57611cbd61174e565b5b6000611ccc85828601611c3b565b9250506020611cdd85828601611974565b9150509250929050565b60008060408385031215611cfe57611cfd61174e565b5b600083013567ffffffffffffffff811115611d1c57611d1b611753565b5b611d28858286016118fd565b9250506020611d3985828601611779565b9150509250929050565b611d4c816119e5565b8114611d5757600080fd5b50565b600081359050611d6981611d43565b92915050565b600080600060608486031215611d8857611d8761174e565b5b600084013567ffffffffffffffff811115611da657611da5611753565b5b611db2868287016118fd565b9350506020611dc386828701611974565b9250506040611dd486828701611d5a565b9150509250925092565b600081519050919050565b600082825260208201905092915050565b6000819050602082019050919050565b611e1381611758565b82525050565b600082825260208201905092915050565b6000611e3582611ae0565b611e3f8185611e19565b9350611e4f818560208601611afc565b611e58816117ef565b840191505092915050565b611e6c81611b5f565b82525050565b611e7b816119e5565b82525050565b611e8a8161194b565b82525050565b600061010083016000830151611ea96000860182611e0a565b5060208301518482036020860152611ec18282611e2a565b9150506040830151611ed66040860182611e63565b506060830151611ee96060860182611e0a565b5060808301518482036080860152611f018282611e2a565b91505060a0830151611f1660a0860182611e72565b5060c0830151611f2960c0860182611e81565b5060e083015184820360e0860152611f418282611e2a565b9150508091505092915050565b6000611f5a8383611e90565b905092915050565b6000602082019050919050565b6000611f7a82611dde565b611f848185611de9565b935083602082028501611f9685611dfa565b8060005b85811015611fd25784840389528151611fb38582611f4e565b9450611fbe83611f62565b925060208a01995050600181019050611f9a565b50829750879550505050505092915050565b60006020820190508181036000830152611ffe8184611f6f565b905092915050565b60006020828403121561201c5761201b61174e565b5b600082013567ffffffffffffffff81111561203a57612039611753565b5b612046848285016118fd565b91505092915050565b600060608201905081810360008301526120698186611b26565b905061207860208301856117bb565b61208560408301846119f1565b949350505050565b61209681611b5f565b81146120a157600080fd5b50565b6000813590506120b38161208d565b92915050565b600080600080608085870312156120d3576120d261174e565b5b60006120e187828801611779565b945050602085013567ffffffffffffffff81111561210257612101611753565b5b61210e878288016118fd565b935050604061211f878288016120a4565b925050606085013567ffffffffffffffff8111156121405761213f611753565b5b61214c878288016118fd565b91505092959194509250565b6000806000606084860312156121715761217061174e565b5b600061217f86828701611779565b935050602061219086828701611779565b925050604084013567ffffffffffffffff8111156121b1576121b0611753565b5b6121bd868287016118fd565b9150509250925092565b7f4e487b7100000000000000000000000000000000000000000000000000000000600052602260045260246000fd5b6000600282049050600182168061220e57607f821691505b602082108103612221576122206121c7565b5b50919050565b600081905092915050565b600061223d82611ae0565b6122478185612227565b9350612257818560208601611afc565b80840191505092915050565b600061226f8284612232565b915081905092915050565b7f4d65747269632074797065206578697374730000000000000000000000000000600082015250565b60006122b0601283611aeb565b91506122bb8261227a565b602082019050919050565b600060208201905081810360008301526122df816122a3565b9050919050565b60008190508160005260206000209050919050565b60006020601f8301049050919050565b600082821b905092915050565b6000600883026123487fffffffffffffffffffffffffffffffffffffffffffffffffffffffffffffffff8261230b565b612352868361230b565b95508019841693508086168417925050509392505050565b6000819050919050565b600061238f61238a61238584611758565b61236a565b611758565b9050919050565b6000819050919050565b6123a983612374565b6123bd6123b582612396565b848454612318565b825550505050565b600090565b6123d26123c5565b6123dd8184846123a0565b505050565b5b81811015612401576123f66000826123ca565b6001810190506123e3565b5050565b601f82111561244657612417816122e6565b612420846122fb565b8101602085101561242f578190505b61244361243b856122fb565b8301826123e2565b50505b505050565b600082821c905092915050565b60006124696000198460080261244b565b1980831691505092915050565b60006124828383612458565b9150826002028217905092915050565b61249b82611ae0565b67ffffffffffffffff8111156124b4576124b3611800565b5b6124be82546121f6565b6124c9828285612405565b600060209050601f8311600181146124fc57600084156124ea578287015190505b6124f48582612476565b86555061255c565b601f19841661250a866122e6565b60005b828110156125325784890151825560018201915060208501945060208101905061250d565b8683101561254f578489015161254b601f891682612458565b8355505b6001600288020188555050505b505050505050565b6000604082019050818103600083015261257e8185611b26565b905061258d60208301846117bb565b9392505050565b7f496e76616c6964206d6574726963207479706500000000000000000000000000600082015250565b60006125ca601383611aeb565b91506125d582612594565b602082019050919050565b600060208201905081810360008301526125f9816125bd565b9050919050565b6000606082019050818103600083015261261a8186611b26565b90506126296020830185611b78565b61263660408301846119f1565b949350505050565b7f556e617574686f72697a656420736f7572636500000000000000000000000000600082015250565b6000612674601383611aeb565b915061267f8261263e565b602082019050919050565b600060208201905081810360008301526126a381612667565b9050919050565b600060608201905081810360008301526126c48186611b26565b90506126d36020830185611b69565b81810360408301526126e58184611b26565b9050949350505050565b7f496e76616c6964206d6574726963204944000000000000000000000000000000600082015250565b6000612725601183611aeb565b9150612730826126ef565b602082019050919050565b6000602082019050818103600083015261275481612718565b9050919050565b7f4e487b7100000000000000000000000000000000000000000000000000000000600052603260045260246000fd5b7f416c726561647920766572696669656400000000000000000000000000000000600082015250565b60006127c0601083611aeb565b91506127cb8261278a565b602082019050919050565b600060208201905081810360008301526127ef816127b3565b9050919050565b600060208201905061280b6000830184611b78565b92915050565b6000815461281e816121f6565b6128288186612227565b9450600182166000811461284357600181146128585761288b565b60ff198316865281151582028601935061288b565b612861856122e6565b60005b8381101561288357815481890152600182019150602081019050612864565b838801955050505b50505092915050565b60006128a08284612811565b915081905092915050565b7f4e487b7100000000000000000000000000000000000000000000000000000000600052601160045260246000fd5b60006128e582611758565b91506128f083611758565b92508282026128fe81611758565b91508282048414831517612915576129146128ab565b5b5092915050565b600061292782611758565b915061293283611758565b925082820190508082111561294a576129496128ab565b5b92915050565b7f4e487b7100000000000000000000000000000000000000000000000000000000600052601260045260246000fd5b600061298a82611758565b915061299583611758565b9250826129a5576129a4612950565b5b828204905092915050565b60006040820190506129c56000830185611b78565b6129d26020830184611c7d565b939250505056fea26469706673582212200a4e01250e4aa08ae2490fbde686bda482c459b93f316538b1baef4a4e6d538864736f6c63430008180033",
  "linkReferences": {},
  "deployedLinkReferences": {}
}