{
  "_format": "hh-sol-artifact-1",
  "contractName": "InvestmentManager",
  "sourceName": "contracts/Regens.sol",
  "abi": [
    {
      "inputs": [
        {
          "internalType": "address",
          "name": "_farmRegistry",
          "type": "address"
        },
        {
          "internalType": "uint256",
          "name": "_platformFee",
          "type": "uint256"
        },
        {
          "internalType": "uint256",
          "name": "_minimumInvestment",
          "type": "uint256"
        }
      ],
      "stateMutability": "nonpayable",
      "type": "constructor"
    },
    {
      "inputs": [],
      "name": "AccessControlBadConfirmation",
      "type": "error"
    },
    {
      "inputs": [
        {
          "internalType": "address",
          "name": "account",
          "type": "address"
        },
        {
          "internalType": "bytes32",
          "name": "neededRole",
          "type": "bytes32"
        }
      ],
      "name": "AccessControlUnauthorizedAccount",
      "type": "error"
    },
    {
      "inputs": [],
      "name": "EnforcedPause",
      "type": "error"
    },
    {
      "inputs": [],
      "name": "ExpectedPause",
      "type": "error"
    },
    {
      "inputs": [],
      "name": "ReentrancyGuardReentrantCall",
      "type": "error"
    },
    {
      "anonymous": false,
      "inputs": [
        {
          "indexed": true,
          "internalType": "uint256",
          "name": "investmentId",
          "type": "uint256"
        },
        {
          "indexed": true,
          "internalType": "address",
          "name": "investor",
          "type": "address"
        },
        {
          "indexed": true,
          "internalType": "uint256",
          "name": "farmId",
          "type": "uint256"
        },
        {
          "indexed": false,
          "internalType": "uint256",
          "name": "amount",
          "type": "uint256"
        },
        {
          "indexed": false,
          "internalType": "address",
          "name": "tokenAddress",
          "type": "address"
        }
      ],
      "name": "InvestmentMade",
      "type": "event"
    },
    {
      "anonymous": false,
      "inputs": [
        {
          "indexed": true,
          "internalType": "uint256",
          "name": "investmentId",
          "type": "uint256"
        },
        {
          "indexed": false,
          "internalType": "uint256",
          "name": "amount",
          "type": "uint256"
        }
      ],
      "name": "InvestmentWithdrawn",
      "type": "event"
    },
    {
      "anonymous": false,
      "inputs": [
        {
          "indexed": false,
          "internalType": "uint256",
          "name": "newMinimum",
          "type": "uint256"
        }
      ],
      "name": "MinimumInvestmentUpdated",
      "type": "event"
    },
    {
      "anonymous": false,
      "inputs": [
        {
          "indexed": false,
          "internalType": "address",
          "name": "account",
          "type": "address"
        }
      ],
      "name": "Paused",
      "type": "event"
    },
    {
      "anonymous": false,
      "inputs": [
        {
          "indexed": false,
          "internalType": "uint256",
          "name": "newFee",
          "type": "uint256"
        }
      ],
      "name": "PlatformFeeUpdated",
      "type": "event"
    },
    {
      "anonymous": false,
      "inputs": [
        {
          "indexed": true,
          "internalType": "bytes32",
          "name": "role",
          "type": "bytes32"
        },
        {
          "indexed": true,
          "internalType": "bytes32",
          "name": "previousAdminRole",
          "type": "bytes32"
        },
        {
          "indexed": true,
          "internalType": "bytes32",
          "name": "newAdminRole",
          "type": "bytes32"
        }
      ],
      "name": "RoleAdminChanged",
      "type": "event"
    },
    {
      "anonymous": false,
      "inputs": [
        {
          "indexed": true,
          "internalType": "bytes32",
          "name": "role",
          "type": "bytes32"
        },
        {
          "indexed": true,
          "internalType": "address",
          "name": "account",
          "type": "address"
        },
        {
          "indexed": true,
          "internalType": "address",
          "name": "sender",
          "type": "address"
        }
      ],
      "name": "RoleGranted",
      "type": "event"
    },
    {
      "anonymous": false,
      "inputs": [
        {
          "indexed": true,
          "internalType": "bytes32",
          "name": "role",
          "type": "bytes32"
        },
        {
          "indexed": true,
          "internalType": "address",
          "name": "account",
          "type": "address"
        },
        {
          "indexed": true,
          "internalType": "address",
          "name": "sender",
          "type": "address"
        }
      ],
      "name": "RoleRevoked",
      "type": "event"
    },
    {
      "anonymous": false,
      "inputs": [
        {
          "indexed": true,
          "internalType": "address",
          "name": "token",
          "type": "address"
        },
        {
          "indexed": false,
          "internalType": "bool",
          "name": "status",
          "type": "bool"
        }
      ],
      "name": "TokenWhitelisted",
      "type": "event"
    },
    {
      "anonymous": false,
      "inputs": [
        {
          "indexed": false,
          "internalType": "address",
          "name": "account",
          "type": "address"
        }
      ],
      "name": "Unpaused",
      "type": "event"
    },
    {
      "inputs": [],
      "name": "DEFAULT_ADMIN_ROLE",
      "outputs": [
        {
          "internalType": "bytes32",
          "name": "",
          "type": "bytes32"
        }
      ],
      "stateMutability": "view",
      "type": "function"
    },
    {
      "inputs": [
        {
          "internalType": "uint256",
          "name": "",
          "type": "uint256"
        }
      ],
      "name": "farmInvestments",
      "outputs": [
        {
          "internalType": "uint256",
          "name": "",
          "type": "uint256"
        }
      ],
      "stateMutability": "view",
      "type": "function"
    },
    {
      "inputs": [],
      "name": "farmRegistry",
      "outputs": [
        {
          "internalType": "contract IFarmRegistry",
          "name": "",
          "type": "address"
        }
      ],
      "stateMutability": "view",
      "type": "function"
    },
    {
      "inputs": [
        {
          "internalType": "bytes32",
          "name": "role",
          "type": "bytes32"
        }
      ],
      "name": "getRoleAdmin",
      "outputs": [
        {
          "internalType": "bytes32",
          "name": "",
          "type": "bytes32"
        }
      ],
      "stateMutability": "view",
      "type": "function"
    },
    {
      "inputs": [
        {
          "internalType": "bytes32",
          "name": "role",
          "type": "bytes32"
        },
        {
          "internalType": "address",
          "name": "account",
          "type": "address"
        }
      ],
      "name": "grantRole",
      "outputs": [],
      "stateMutability": "nonpayable",
      "type": "function"
    },
    {
      "inputs": [
        {
          "internalType": "bytes32",
          "name": "role",
          "type": "bytes32"
        },
        {
          "internalType": "address",
          "name": "account",
          "type": "address"
        }
      ],
      "name": "hasRole",
      "outputs": [
        {
          "internalType": "bool",
          "name": "",
          "type": "bool"
        }
      ],
      "stateMutability": "view",
      "type": "function"
    },
    {
      "inputs": [
        {
          "internalType": "uint256",
          "name": "_farmId",
          "type": "uint256"
        },
        {
          "internalType": "address",
          "name": "_tokenAddress",
          "type": "address"
        },
        {
          "internalType": "uint256",
          "name": "_amount",
          "type": "uint256"
        },
        {
          "internalType": "uint256",
          "name": "_lockPeriod",
          "type": "uint256"
        }
      ],
      "name": "invest",
      "outputs": [],
      "stateMutability": "payable",
      "type": "function"
    },
    {
      "inputs": [
        {
          "internalType": "uint256",
          "name": "",
          "type": "uint256"
        }
      ],
      "name": "investments",
      "outputs": [
        {
          "internalType": "address",
          "name": "investor",
          "type": "address"
        },
        {
          "internalType": "uint256",
          "name": "farmId",
          "type": "uint256"
        },
        {
          "internalType": "uint256",
          "name": "amount",
          "type": "uint256"
        },
        {
          "internalType": "uint256",
          "name": "timestamp",
          "type": "uint256"
        },
        {
          "internalType": "enum InvestmentManager.InvestmentStatus",
          "name": "status",
          "type": "uint8"
        },
        {
          "internalType": "address",
          "name": "tokenAddress",
          "type": "address"
        },
        {
          "internalType": "uint256",
          "name": "shares",
          "type": "uint256"
        },
        {
          "internalType": "uint256",
          "name": "minimumLockPeriod",
          "type": "uint256"
        }
      ],
      "stateMutability": "view",
      "type": "function"
    },
    {
      "inputs": [
        {
          "internalType": "address",
          "name": "",
          "type": "address"
        },
        {
          "internalType": "uint256",
          "name": "",
          "type": "uint256"
        }
      ],
      "name": "investorInvestments",
      "outputs": [
        {
          "internalType": "uint256",
          "name": "",
          "type": "uint256"
        }
      ],
      "stateMutability": "view",
      "type": "function"
    },
    {
      "inputs": [],
      "name": "minimumInvestment",
      "outputs": [
        {
          "internalType": "uint256",
          "name": "",
          "type": "uint256"
        }
      ],
      "stateMutability": "view",
      "type": "function"
    },
    {
      "inputs": [],
      "name": "paused",
      "outputs": [
        {
          "internalType": "bool",
          "name": "",
          "type": "bool"
        }
      ],
      "stateMutability": "view",
      "type": "function"
    },
    {
      "inputs": [],
      "name": "platformFee",
      "outputs": [
        {
          "internalType": "uint256",
          "name": "",
          "type": "uint256"
        }
      ],
      "stateMutability": "view",
      "type": "function"
    },
    {
      "inputs": [
        {
          "internalType": "bytes32",
          "name": "role",
          "type": "bytes32"
        },
        {
          "internalType": "address",
          "name": "callerConfirmation",
          "type": "address"
        }
      ],
      "name": "renounceRole",
      "outputs": [],
      "stateMutability": "nonpayable",
      "type": "function"
    },
    {
      "inputs": [
        {
          "internalType": "bytes32",
          "name": "role",
          "type": "bytes32"
        },
        {
          "internalType": "address",
          "name": "account",
          "type": "address"
        }
      ],
      "name": "revokeRole",
      "outputs": [],
      "stateMutability": "nonpayable",
      "type": "function"
    },
    {
      "inputs": [
        {
          "internalType": "address",
          "name": "",
          "type": "address"
        }
      ],
      "name": "supportedTokens",
      "outputs": [
        {
          "internalType": "bool",
          "name": "",
          "type": "bool"
        }
      ],
      "stateMutability": "view",
      "type": "function"
    },
    {
      "inputs": [
        {
          "internalType": "bytes4",
          "name": "interfaceId",
          "type": "bytes4"
        }
      ],
      "name": "supportsInterface",
      "outputs": [
        {
          "internalType": "bool",
          "name": "",
          "type": "bool"
        }
      ],
      "stateMutability": "view",
      "type": "function"
    },
    {
      "inputs": [
        {
          "internalType": "uint256",
          "name": "_newMinimum",
          "type": "uint256"
        }
      ],
      "name": "updateMinimumInvestment",
      "outputs": [],
      "stateMutability": "nonpayable",
      "type": "function"
    },
    {
      "inputs": [
        {
          "internalType": "uint256",
          "name": "_newFee",
          "type": "uint256"
        }
      ],
      "name": "updatePlatformFee",
      "outputs": [],
      "stateMutability": "nonpayable",
      "type": "function"
    },
    {
      "inputs": [
        {
          "internalType": "address",
          "name": "_token",
          "type": "address"
        },
        {
          "internalType": "bool",
          "name": "_status",
          "type": "bool"
        }
      ],
      "name": "updateSupportedToken",
      "outputs": [],
      "stateMutability": "nonpayable",
      "type": "function"
    },
    {
      "inputs": [
        {
          "internalType": "uint256",
          "name": "_investmentId",
          "type": "uint256"
        }
      ],
      "name": "withdraw",
      "outputs": [],
      "stateMutability": "nonpayable",
      "type": "function"
    }
  ],
  "bytecode": "0x60a06040523480156200001157600080fd5b506040516200296738038062002967833981810160405281019062000037919062000374565b600180819055506000600260006101000a81548160ff0219169083151502179055506103e8821115620000a1576040517f08c379a0000000000000000000000000000000000000000000000000000000008152600401620000989062000431565b60405180910390fd5b8273ffffffffffffffffffffffffffffffffffffffff1660808173ffffffffffffffffffffffffffffffffffffffff16815250508160088190555080600981905550620000f86000801b336200015a60201b60201c565b506001600760008073ffffffffffffffffffffffffffffffffffffffff1673ffffffffffffffffffffffffffffffffffffffff16815260200190815260200160002060006101000a81548160ff02191690831515021790555050505062000453565b60006200016e83836200025d60201b60201c565b6200025257600160008085815260200190815260200160002060000160008473ffffffffffffffffffffffffffffffffffffffff1673ffffffffffffffffffffffffffffffffffffffff16815260200190815260200160002060006101000a81548160ff021916908315150217905550620001ee620002c760201b60201c565b73ffffffffffffffffffffffffffffffffffffffff168273ffffffffffffffffffffffffffffffffffffffff16847f2f8788117e7eff1d82e926ec794901d17c78024a50270940304540a733656f0d60405160405180910390a46001905062000257565b600090505b92915050565b600080600084815260200190815260200160002060000160008373ffffffffffffffffffffffffffffffffffffffff1673ffffffffffffffffffffffffffffffffffffffff16815260200190815260200160002060009054906101000a900460ff16905092915050565b600033905090565b600080fd5b600073ffffffffffffffffffffffffffffffffffffffff82169050919050565b60006200030182620002d4565b9050919050565b6200031381620002f4565b81146200031f57600080fd5b50565b600081519050620003338162000308565b92915050565b6000819050919050565b6200034e8162000339565b81146200035a57600080fd5b50565b6000815190506200036e8162000343565b92915050565b60008060006060848603121562000390576200038f620002cf565b5b6000620003a08682870162000322565b9350506020620003b3868287016200035d565b9250506040620003c6868287016200035d565b9150509250925092565b600082825260208201905092915050565b7f46656520746f6f20686967680000000000000000000000000000000000000000600082015250565b600062000419600c83620003d0565b91506200042682620003e1565b602082019050919050565b600060208201905081810360008301526200044c816200040a565b9050919050565b6080516124ea6200047d6000396000818161099001528181610e60015261110501526124ea6000f3fe60806040526004361061011f5760003560e01c806368c4ac26116100a0578063aa0b598811610064578063aa0b5988146103ec578063d547741f14610415578063e71ef4fe1461043e578063eef90b6214610467578063fd345c8a146104a45761011f565b806368c4ac26146103005780636b8e06dc1461033d57806387418e4a1461035957806391d1485414610384578063a217fddf146103c15761011f565b80632e1a7d4d116100e75780632e1a7d4d146102315780632f2ff15d1461025a57806336568abe146102835780635c975abb146102ac5780636418345e146102d75761011f565b806301ffc9a71461012457806317005a1614610161578063248a9ca31461019e57806326232a2e146101db5780632b925b2514610206575b600080fd5b34801561013057600080fd5b5061014b60048036038101906101469190611805565b6104e8565b604051610158919061184d565b60405180910390f35b34801561016d57600080fd5b506101886004803603810190610183919061189e565b610562565b60405161019591906118da565b60405180910390f35b3480156101aa57600080fd5b506101c560048036038101906101c0919061192b565b61057a565b6040516101d29190611967565b60405180910390f35b3480156101e757600080fd5b506101f0610599565b6040516101fd91906118da565b60405180910390f35b34801561021257600080fd5b5061021b61059f565b60405161022891906118da565b60405180910390f35b34801561023d57600080fd5b506102586004803603810190610253919061189e565b6105a5565b005b34801561026657600080fd5b50610281600480360381019061027c91906119e0565b61078a565b005b34801561028f57600080fd5b506102aa60048036038101906102a591906119e0565b6107ac565b005b3480156102b857600080fd5b506102c1610827565b6040516102ce919061184d565b60405180910390f35b3480156102e357600080fd5b506102fe60048036038101906102f9919061189e565b61083e565b005b34801561030c57600080fd5b5061032760048036038101906103229190611a20565b61088d565b604051610334919061184d565b60405180910390f35b61035760048036038101906103529190611a4d565b6108ad565b005b34801561036557600080fd5b5061036e611103565b60405161037b9190611b13565b60405180910390f35b34801561039057600080fd5b506103ab60048036038101906103a691906119e0565b611127565b6040516103b8919061184d565b60405180910390f35b3480156103cd57600080fd5b506103d6611191565b6040516103e39190611967565b60405180910390f35b3480156103f857600080fd5b50610413600480360381019061040e919061189e565b611198565b005b34801561042157600080fd5b5061043c600480360381019061043791906119e0565b61122c565b005b34801561044a57600080fd5b5061046560048036038101906104609190611b5a565b61124e565b005b34801561047357600080fd5b5061048e60048036038101906104899190611b9a565b611305565b60405161049b91906118da565b60405180910390f35b3480156104b057600080fd5b506104cb60048036038101906104c6919061189e565b611336565b6040516104df989796959493929190611c60565b60405180910390f35b60007f7965db0b000000000000000000000000000000000000000000000000000000007bffffffffffffffffffffffffffffffffffffffffffffffffffffffff1916827bffffffffffffffffffffffffffffffffffffffffffffffffffffffff1916148061055b575061055a826113cb565b5b9050919050565b60056020528060005260406000206000915090505481565b6000806000838152602001908152602001600020600101549050919050565b60085481565b60095481565b6105ad611435565b60006004600083815260200190815260200160002090508060000160009054906101000a900473ffffffffffffffffffffffffffffffffffffffff1673ffffffffffffffffffffffffffffffffffffffff163373ffffffffffffffffffffffffffffffffffffffff1614610656576040517f08c379a000000000000000000000000000000000000000000000000000000000815260040161064d90611d3b565b60405180910390fd5b6000600281111561066a57610669611be9565b5b8160040160009054906101000a900460ff16600281111561068e5761068d611be9565b5b146106ce576040517f08c379a00000000000000000000000000000000000000000000000000000000081526004016106c590611da7565b60405180910390fd5b8060060154421015610715576040517f08c379a000000000000000000000000000000000000000000000000000000000815260040161070c90611e13565b60405180910390fd5b60018160040160006101000a81548160ff0219169083600281111561073d5761073c611be9565b5b0217905550817fdc508fdeadbe6e2e8063bf4c6da7d8589fed45163c625b501d9a4ba76b908191826002015460405161077691906118da565b60405180910390a25061078761147b565b50565b6107938261057a565b61079c81611484565b6107a68383611498565b50505050565b6107b4611589565b73ffffffffffffffffffffffffffffffffffffffff168173ffffffffffffffffffffffffffffffffffffffff1614610818576040517f6697b23200000000000000000000000000000000000000000000000000000000815260040160405180910390fd5b6108228282611591565b505050565b6000600260009054906101000a900460ff16905090565b6000801b61084b81611484565b816009819055507fd9128cb93e1e7b24b55378ece8e7c706f080ad8780ba5962e8372cad731375ff8260405161088191906118da565b60405180910390a15050565b60076020528060005260406000206000915054906101000a900460ff1681565b6108b5611683565b6108bd611435565b600760008473ffffffffffffffffffffffffffffffffffffffff1673ffffffffffffffffffffffffffffffffffffffff16815260200190815260200160002060009054906101000a900460ff16610949576040517f08c379a000000000000000000000000000000000000000000000000000000000815260040161094090611e7f565b60405180910390fd5b60095482101561098e576040517f08c379a000000000000000000000000000000000000000000000000000000000815260040161098590611eeb565b60405180910390fd5b7f000000000000000000000000000000000000000000000000000000000000000073ffffffffffffffffffffffffffffffffffffffff1663c9a848b2856040518263ffffffff1660e01b81526004016109e791906118da565b602060405180830381865afa158015610a04573d6000803e3d6000fd5b505050506040513d601f19601f82011682018060405250810190610a289190611f20565b610a67576040517f08c379a0000000000000000000000000000000000000000000000000000000008152600401610a5e90611f99565b60405180910390fd5b60008073ffffffffffffffffffffffffffffffffffffffff168473ffffffffffffffffffffffffffffffffffffffff1603610ae657823414610ade576040517f08c379a0000000000000000000000000000000000000000000000000000000008152600401610ad590612005565b60405180910390fd5b349050610bf2565b60003414610b29576040517f08c379a0000000000000000000000000000000000000000000000000000000008152600401610b2090612071565b60405180910390fd5b60008490508073ffffffffffffffffffffffffffffffffffffffff166323b872dd3330876040518463ffffffff1660e01b8152600401610b6b93929190612091565b6020604051808303816000875af1158015610b8a573d6000803e3d6000fd5b505050506040513d601f19601f82011682018060405250810190610bae9190611f20565b610bed576040517f08c379a0000000000000000000000000000000000000000000000000000000008152600401610be490612114565b60405180910390fd5b839150505b600061271060085483610c059190612163565b610c0f91906121d4565b905060008183610c1f9190612205565b9050610c2b60036116c4565b6000610c3760036116e3565b90506040518061010001604052803373ffffffffffffffffffffffffffffffffffffffff16815260200189815260200183815260200142815260200160006002811115610c8757610c86611be9565b5b81526020018873ffffffffffffffffffffffffffffffffffffffff168152602001610cb2848b6116f1565b81526020018642610cc39190612239565b8152506004600083815260200190815260200160002060008201518160000160006101000a81548173ffffffffffffffffffffffffffffffffffffffff021916908373ffffffffffffffffffffffffffffffffffffffff16021790555060208201518160010155604082015181600201556060820151816003015560808201518160040160006101000a81548160ff02191690836002811115610d6957610d68611be9565b5b021790555060a08201518160040160016101000a81548173ffffffffffffffffffffffffffffffffffffffff021916908373ffffffffffffffffffffffffffffffffffffffff16021790555060c0820151816005015560e0820151816006015590505081600560008a81526020019081526020016000206000828254610def9190612239565b92505081905550600660003373ffffffffffffffffffffffffffffffffffffffff1673ffffffffffffffffffffffffffffffffffffffff16815260200190815260200160002081908060018154018082558091505060019003906000526020600020016000909190919091505560007f000000000000000000000000000000000000000000000000000000000000000073ffffffffffffffffffffffffffffffffffffffff1663bc7aa9338a6040518263ffffffff1660e01b8152600401610eb791906118da565b602060405180830381865afa158015610ed4573d6000803e3d6000fd5b505050506040513d601f19601f82011682018060405250810190610ef89190612282565b9050600073ffffffffffffffffffffffffffffffffffffffff168873ffffffffffffffffffffffffffffffffffffffff1603610fe05760008173ffffffffffffffffffffffffffffffffffffffff1684604051610f54906122e0565b60006040518083038185875af1925050503d8060008114610f91576040519150601f19603f3d011682016040523d82523d6000602084013e610f96565b606091505b5050905080610fda576040517f08c379a0000000000000000000000000000000000000000000000000000000008152600401610fd190612341565b60405180910390fd5b5061109e565b8773ffffffffffffffffffffffffffffffffffffffff1663a9059cbb82856040518363ffffffff1660e01b815260040161101b929190612361565b6020604051808303816000875af115801561103a573d6000803e3d6000fd5b505050506040513d601f19601f8201168201806040525081019061105e9190611f20565b61109d576040517f08c379a0000000000000000000000000000000000000000000000000000000008152600401611094906123d6565b60405180910390fd5b5b883373ffffffffffffffffffffffffffffffffffffffff16837ff756b9c5ccf8e96da657da0a75a16c5d88ed2ded4869b615a6141ab51232dc9c868c6040516110e89291906123f6565b60405180910390a450505050506110fd61147b565b50505050565b7f000000000000000000000000000000000000000000000000000000000000000081565b600080600084815260200190815260200160002060000160008373ffffffffffffffffffffffffffffffffffffffff1673ffffffffffffffffffffffffffffffffffffffff16815260200190815260200160002060009054906101000a900460ff16905092915050565b6000801b81565b6000801b6111a581611484565b6103e88211156111ea576040517f08c379a00000000000000000000000000000000000000000000000000000000081526004016111e19061246b565b60405180910390fd5b816008819055507f45610d581145924dd7090a5017e5f2b1d6f42213bb2e95707ff86846bbfcb1ca8260405161122091906118da565b60405180910390a15050565b6112358261057a565b61123e81611484565b6112488383611591565b50505050565b6000801b61125b81611484565b81600760008573ffffffffffffffffffffffffffffffffffffffff1673ffffffffffffffffffffffffffffffffffffffff16815260200190815260200160002060006101000a81548160ff0219169083151502179055508273ffffffffffffffffffffffffffffffffffffffff167fef81a9943b96c8df4ef243401c9bf5159146166211356898b52d382086168d92836040516112f8919061184d565b60405180910390a2505050565b6006602052816000526040600020818154811061132157600080fd5b90600052602060002001600091509150505481565b60046020528060005260406000206000915090508060000160009054906101000a900473ffffffffffffffffffffffffffffffffffffffff16908060010154908060020154908060030154908060040160009054906101000a900460ff16908060040160019054906101000a900473ffffffffffffffffffffffffffffffffffffffff16908060050154908060060154905088565b60007f01ffc9a7000000000000000000000000000000000000000000000000000000007bffffffffffffffffffffffffffffffffffffffffffffffffffffffff1916827bffffffffffffffffffffffffffffffffffffffffffffffffffffffff1916149050919050565b600260015403611471576040517f3ee5aeb500000000000000000000000000000000000000000000000000000000815260040160405180910390fd5b6002600181905550565b60018081905550565b61149581611490611589565b611757565b50565b60006114a48383611127565b61157e57600160008085815260200190815260200160002060000160008473ffffffffffffffffffffffffffffffffffffffff1673ffffffffffffffffffffffffffffffffffffffff16815260200190815260200160002060006101000a81548160ff02191690831515021790555061151b611589565b73ffffffffffffffffffffffffffffffffffffffff168273ffffffffffffffffffffffffffffffffffffffff16847f2f8788117e7eff1d82e926ec794901d17c78024a50270940304540a733656f0d60405160405180910390a460019050611583565b600090505b92915050565b600033905090565b600061159d8383611127565b1561167857600080600085815260200190815260200160002060000160008473ffffffffffffffffffffffffffffffffffffffff1673ffffffffffffffffffffffffffffffffffffffff16815260200190815260200160002060006101000a81548160ff021916908315150217905550611615611589565b73ffffffffffffffffffffffffffffffffffffffff168273ffffffffffffffffffffffffffffffffffffffff16847ff6391f5c32d9c69d2a47ea670b442974b53935d1edc7fd64eb21e047a839171b60405160405180910390a46001905061167d565b600090505b92915050565b61168b610827565b156116c2576040517fd93c066500000000000000000000000000000000000000000000000000000000815260040160405180910390fd5b565b60018160000160008282546116d99190612239565b9250508190555050565b600081600001549050919050565b600080600560008481526020019081526020016000205403611717576127109050611751565b8260056000848152602001908152602001600020546117369190612239565b612710846117449190612163565b61174e91906121d4565b90505b92915050565b6117618282611127565b6117a45780826040517fe2517d3f00000000000000000000000000000000000000000000000000000000815260040161179b92919061248b565b60405180910390fd5b5050565b600080fd5b60007fffffffff0000000000000000000000000000000000000000000000000000000082169050919050565b6117e2816117ad565b81146117ed57600080fd5b50565b6000813590506117ff816117d9565b92915050565b60006020828403121561181b5761181a6117a8565b5b6000611829848285016117f0565b91505092915050565b60008115159050919050565b61184781611832565b82525050565b6000602082019050611862600083018461183e565b92915050565b6000819050919050565b61187b81611868565b811461188657600080fd5b50565b60008135905061189881611872565b92915050565b6000602082840312156118b4576118b36117a8565b5b60006118c284828501611889565b91505092915050565b6118d481611868565b82525050565b60006020820190506118ef60008301846118cb565b92915050565b6000819050919050565b611908816118f5565b811461191357600080fd5b50565b600081359050611925816118ff565b92915050565b600060208284031215611941576119406117a8565b5b600061194f84828501611916565b91505092915050565b611961816118f5565b82525050565b600060208201905061197c6000830184611958565b92915050565b600073ffffffffffffffffffffffffffffffffffffffff82169050919050565b60006119ad82611982565b9050919050565b6119bd816119a2565b81146119c857600080fd5b50565b6000813590506119da816119b4565b92915050565b600080604083850312156119f7576119f66117a8565b5b6000611a0585828601611916565b9250506020611a16858286016119cb565b9150509250929050565b600060208284031215611a3657611a356117a8565b5b6000611a44848285016119cb565b91505092915050565b60008060008060808587031215611a6757611a666117a8565b5b6000611a7587828801611889565b9450506020611a86878288016119cb565b9350506040611a9787828801611889565b9250506060611aa887828801611889565b91505092959194509250565b6000819050919050565b6000611ad9611ad4611acf84611982565b611ab4565b611982565b9050919050565b6000611aeb82611abe565b9050919050565b6000611afd82611ae0565b9050919050565b611b0d81611af2565b82525050565b6000602082019050611b286000830184611b04565b92915050565b611b3781611832565b8114611b4257600080fd5b50565b600081359050611b5481611b2e565b92915050565b60008060408385031215611b7157611b706117a8565b5b6000611b7f858286016119cb565b9250506020611b9085828601611b45565b9150509250929050565b60008060408385031215611bb157611bb06117a8565b5b6000611bbf858286016119cb565b9250506020611bd085828601611889565b9150509250929050565b611be3816119a2565b82525050565b7f4e487b7100000000000000000000000000000000000000000000000000000000600052602160045260246000fd5b60038110611c2957611c28611be9565b5b50565b6000819050611c3a82611c18565b919050565b6000611c4a82611c2c565b9050919050565b611c5a81611c3f565b82525050565b600061010082019050611c76600083018b611bda565b611c83602083018a6118cb565b611c9060408301896118cb565b611c9d60608301886118cb565b611caa6080830187611c51565b611cb760a0830186611bda565b611cc460c08301856118cb565b611cd160e08301846118cb565b9998505050505050505050565b600082825260208201905092915050565b7f4e6f7420696e766573746f720000000000000000000000000000000000000000600082015250565b6000611d25600c83611cde565b9150611d3082611cef565b602082019050919050565b60006020820190508181036000830152611d5481611d18565b9050919050565b7f496e766573746d656e74206e6f74206163746976650000000000000000000000600082015250565b6000611d91601583611cde565b9150611d9c82611d5b565b602082019050919050565b60006020820190508181036000830152611dc081611d84565b9050919050565b7f4c6f636b20706572696f64206163746976650000000000000000000000000000600082015250565b6000611dfd601283611cde565b9150611e0882611dc7565b602082019050919050565b60006020820190508181036000830152611e2c81611df0565b9050919050565b7f546f6b656e206e6f7420737570706f7274656400000000000000000000000000600082015250565b6000611e69601383611cde565b9150611e7482611e33565b602082019050919050565b60006020820190508181036000830152611e9881611e5c565b9050919050565b7f42656c6f77206d696e696d756d20696e766573746d656e740000000000000000600082015250565b6000611ed5601883611cde565b9150611ee082611e9f565b602082019050919050565b60006020820190508181036000830152611f0481611ec8565b9050919050565b600081519050611f1a81611b2e565b92915050565b600060208284031215611f3657611f356117a8565b5b6000611f4484828501611f0b565b91505092915050565b7f4661726d206e6f74207665726966696564000000000000000000000000000000600082015250565b6000611f83601183611cde565b9150611f8e82611f4d565b602082019050919050565b60006020820190508181036000830152611fb281611f76565b9050919050565b7f496e636f727265637420434f524520616d6f756e740000000000000000000000600082015250565b6000611fef601583611cde565b9150611ffa82611fb9565b602082019050919050565b6000602082019050818103600083015261201e81611fe2565b9050919050565b7f434f5245206e6f74206163636570746564000000000000000000000000000000600082015250565b600061205b601183611cde565b915061206682612025565b602082019050919050565b6000602082019050818103600083015261208a8161204e565b9050919050565b60006060820190506120a66000830186611bda565b6120b36020830185611bda565b6120c060408301846118cb565b949350505050565b7f5472616e73666572206661696c65640000000000000000000000000000000000600082015250565b60006120fe600f83611cde565b9150612109826120c8565b602082019050919050565b6000602082019050818103600083015261212d816120f1565b9050919050565b7f4e487b7100000000000000000000000000000000000000000000000000000000600052601160045260246000fd5b600061216e82611868565b915061217983611868565b925082820261218781611868565b9150828204841483151761219e5761219d612134565b5b5092915050565b7f4e487b7100000000000000000000000000000000000000000000000000000000600052601260045260246000fd5b60006121df82611868565b91506121ea83611868565b9250826121fa576121f96121a5565b5b828204905092915050565b600061221082611868565b915061221b83611868565b925082820390508181111561223357612232612134565b5b92915050565b600061224482611868565b915061224f83611868565b925082820190508082111561226757612266612134565b5b92915050565b60008151905061227c816119b4565b92915050565b600060208284031215612298576122976117a8565b5b60006122a68482850161226d565b91505092915050565b600081905092915050565b50565b60006122ca6000836122af565b91506122d5826122ba565b600082019050919050565b60006122eb826122bd565b9150819050919050565b7f4661696c656420746f2073656e6420434f524500000000000000000000000000600082015250565b600061232b601383611cde565b9150612336826122f5565b602082019050919050565b6000602082019050818103600083015261235a8161231e565b9050919050565b60006040820190506123766000830185611bda565b61238360208301846118cb565b9392505050565b7f546f6b656e207472616e73666572206661696c65640000000000000000000000600082015250565b60006123c0601583611cde565b91506123cb8261238a565b602082019050919050565b600060208201905081810360008301526123ef816123b3565b9050919050565b600060408201905061240b60008301856118cb565b6124186020830184611bda565b9392505050565b7f46656520746f6f20686967680000000000000000000000000000000000000000600082015250565b6000612455600c83611cde565b91506124608261241f565b602082019050919050565b6000602082019050818103600083015261248481612448565b9050919050565b60006040820190506124a06000830185611bda565b6124ad6020830184611958565b939250505056fea2646970667358221220d635db2a110bc15f8ec746f3c468d2f1bf3877fae51ffa31c696c63b030f063b64736f6c63430008180033",
  "linkReferences": {},
  "deployedLinkReferences": {}
}