{
  "_format": "hh-sol-artifact-1",
  "contractName": "Marketplace",
  "sourceName": "contracts/Regens.sol",
  "abi": [
    {
      "inputs": [
        {
          "internalType": "address",
          "name": "_farmRegistry",
          "type": "address"
        },
        {
          "internalType": "uint256",
          "name": "_platformFee",
          "type": "uint256"
        },
        {
          "internalType": "uint256",
          "name": "_escrowPeriod",
          "type": "uint256"
        }
      ],
      "stateMutability": "nonpayable",
      "type": "constructor"
    },
    {
      "inputs": [],
      "name": "AccessControlBadConfirmation",
      "type": "error"
    },
    {
      "inputs": [
        {
          "internalType": "address",
          "name": "account",
          "type": "address"
        },
        {
          "internalType": "bytes32",
          "name": "neededRole",
          "type": "bytes32"
        }
      ],
      "name": "AccessControlUnauthorizedAccount",
      "type": "error"
    },
    {
      "inputs": [],
      "name": "EnforcedPause",
      "type": "error"
    },
    {
      "inputs": [],
      "name": "ExpectedPause",
      "type": "error"
    },
    {
      "inputs": [],
      "name": "ReentrancyGuardReentrantCall",
      "type": "error"
    },
    {
      "anonymous": false,
      "inputs": [
        {
          "indexed": true,
          "internalType": "uint256",
          "name": "orderId",
          "type": "uint256"
        },
        {
          "indexed": true,
          "internalType": "uint256",
          "name": "productId",
          "type": "uint256"
        },
        {
          "indexed": true,
          "internalType": "address",
          "name": "buyer",
          "type": "address"
        }
      ],
      "name": "OrderCreated",
      "type": "event"
    },
    {
      "anonymous": false,
      "inputs": [
        {
          "indexed": true,
          "internalType": "uint256",
          "name": "orderId",
          "type": "uint256"
        },
        {
          "indexed": false,
          "internalType": "enum Marketplace.OrderStatus",
          "name": "status",
          "type": "uint8"
        }
      ],
      "name": "OrderStatusUpdated",
      "type": "event"
    },
    {
      "anonymous": false,
      "inputs": [
        {
          "indexed": false,
          "internalType": "address",
          "name": "account",
          "type": "address"
        }
      ],
      "name": "Paused",
      "type": "event"
    },
    {
      "anonymous": false,
      "inputs": [
        {
          "indexed": true,
          "internalType": "uint256",
          "name": "productId",
          "type": "uint256"
        },
        {
          "indexed": true,
          "internalType": "uint256",
          "name": "farmId",
          "type": "uint256"
        },
        {
          "indexed": false,
          "internalType": "string",
          "name": "name",
          "type": "string"
        }
      ],
      "name": "ProductCreated",
      "type": "event"
    },
    {
      "anonymous": false,
      "inputs": [
        {
          "indexed": true,
          "internalType": "uint256",
          "name": "productId",
          "type": "uint256"
        },
        {
          "indexed": false,
          "internalType": "enum Marketplace.ProductStatus",
          "name": "status",
          "type": "uint8"
        }
      ],
      "name": "ProductStatusChanged",
      "type": "event"
    },
    {
      "anonymous": false,
      "inputs": [
        {
          "indexed": true,
          "internalType": "uint256",
          "name": "productId",
          "type": "uint256"
        }
      ],
      "name": "ProductUpdated",
      "type": "event"
    },
    {
      "anonymous": false,
      "inputs": [
        {
          "indexed": true,
          "internalType": "bytes32",
          "name": "role",
          "type": "bytes32"
        },
        {
          "indexed": true,
          "internalType": "bytes32",
          "name": "previousAdminRole",
          "type": "bytes32"
        },
        {
          "indexed": true,
          "internalType": "bytes32",
          "name": "newAdminRole",
          "type": "bytes32"
        }
      ],
      "name": "RoleAdminChanged",
      "type": "event"
    },
    {
      "anonymous": false,
      "inputs": [
        {
          "indexed": true,
          "internalType": "bytes32",
          "name": "role",
          "type": "bytes32"
        },
        {
          "indexed": true,
          "internalType": "address",
          "name": "account",
          "type": "address"
        },
        {
          "indexed": true,
          "internalType": "address",
          "name": "sender",
          "type": "address"
        }
      ],
      "name": "RoleGranted",
      "type": "event"
    },
    {
      "anonymous": false,
      "inputs": [
        {
          "indexed": true,
          "internalType": "bytes32",
          "name": "role",
          "type": "bytes32"
        },
        {
          "indexed": true,
          "internalType": "address",
          "name": "account",
          "type": "address"
        },
        {
          "indexed": true,
          "internalType": "address",
          "name": "sender",
          "type": "address"
        }
      ],
      "name": "RoleRevoked",
      "type": "event"
    },
    {
      "anonymous": false,
      "inputs": [
        {
          "indexed": true,
          "internalType": "uint256",
          "name": "orderId",
          "type": "uint256"
        },
        {
          "indexed": false,
          "internalType": "string",
          "name": "trackingNumber",
          "type": "string"
        }
      ],
      "name": "TrackingUpdated",
      "type": "event"
    },
    {
      "anonymous": false,
      "inputs": [
        {
          "indexed": false,
          "internalType": "address",
          "name": "account",
          "type": "address"
        }
      ],
      "name": "Unpaused",
      "type": "event"
    },
    {
      "inputs": [],
      "name": "DEFAULT_ADMIN_ROLE",
      "outputs": [
        {
          "internalType": "bytes32",
          "name": "",
          "type": "bytes32"
        }
      ],
      "stateMutability": "view",
      "type": "function"
    },
    {
      "inputs": [
        {
          "internalType": "address",
          "name": "",
          "type": "address"
        },
        {
          "internalType": "uint256",
          "name": "",
          "type": "uint256"
        }
      ],
      "name": "buyerOrders",
      "outputs": [
        {
          "internalType": "uint256",
          "name": "",
          "type": "uint256"
        }
      ],
      "stateMutability": "view",
      "type": "function"
    },
    {
      "inputs": [
        {
          "internalType": "uint256",
          "name": "_productId",
          "type": "uint256"
        },
        {
          "internalType": "uint256",
          "name": "_quantity",
          "type": "uint256"
        },
        {
          "internalType": "string",
          "name": "_shippingDetails",
          "type": "string"
        }
      ],
      "name": "createOrder",
      "outputs": [
        {
          "internalType": "uint256",
          "name": "",
          "type": "uint256"
        }
      ],
      "stateMutability": "payable",
      "type": "function"
    },
    {
      "inputs": [
        {
          "internalType": "uint256",
          "name": "_farmId",
          "type": "uint256"
        },
        {
          "internalType": "string",
          "name": "_name",
          "type": "string"
        },
        {
          "internalType": "uint256",
          "name": "_price",
          "type": "uint256"
        },
        {
          "internalType": "uint256",
          "name": "_quantity",
          "type": "uint256"
        },
        {
          "internalType": "string",
          "name": "_metadataURI",
          "type": "string"
        },
        {
          "internalType": "bool",
          "name": "_organic",
          "type": "bool"
        },
        {
          "internalType": "string[]",
          "name": "_certifications",
          "type": "string[]"
        },
        {
          "internalType": "uint256",
          "name": "_minimumOrder",
          "type": "uint256"
        },
        {
          "internalType": "uint256",
          "name": "_maximumOrder",
          "type": "uint256"
        }
      ],
      "name": "createProduct",
      "outputs": [
        {
          "internalType": "uint256",
          "name": "",
          "type": "uint256"
        }
      ],
      "stateMutability": "nonpayable",
      "type": "function"
    },
    {
      "inputs": [],
      "name": "escrowPeriod",
      "outputs": [
        {
          "internalType": "uint256",
          "name": "",
          "type": "uint256"
        }
      ],
      "stateMutability": "view",
      "type": "function"
    },
    {
      "inputs": [
        {
          "internalType": "uint256",
          "name": "",
          "type": "uint256"
        },
        {
          "internalType": "uint256",
          "name": "",
          "type": "uint256"
        }
      ],
      "name": "farmProducts",
      "outputs": [
        {
          "internalType": "uint256",
          "name": "",
          "type": "uint256"
        }
      ],
      "stateMutability": "view",
      "type": "function"
    },
    {
      "inputs": [],
      "name": "farmRegistry",
      "outputs": [
        {
          "internalType": "contract IFarmRegistry",
          "name": "",
          "type": "address"
        }
      ],
      "stateMutability": "view",
      "type": "function"
    },
    {
      "inputs": [
        {
          "internalType": "address",
          "name": "_buyer",
          "type": "address"
        }
      ],
      "name": "getBuyerOrders",
      "outputs": [
        {
          "internalType": "uint256[]",
          "name": "",
          "type": "uint256[]"
        }
      ],
      "stateMutability": "view",
      "type": "function"
    },
    {
      "inputs": [
        {
          "internalType": "uint256",
          "name": "_farmId",
          "type": "uint256"
        }
      ],
      "name": "getFarmProducts",
      "outputs": [
        {
          "internalType": "uint256[]",
          "name": "",
          "type": "uint256[]"
        }
      ],
      "stateMutability": "view",
      "type": "function"
    },
    {
      "inputs": [
        {
          "internalType": "uint256",
          "name": "_orderId",
          "type": "uint256"
        }
      ],
      "name": "getOrder",
      "outputs": [
        {
          "internalType": "uint256",
          "name": "productId",
          "type": "uint256"
        },
        {
          "internalType": "address",
          "name": "buyer",
          "type": "address"
        },
        {
          "internalType": "uint256",
          "name": "quantity",
          "type": "uint256"
        },
        {
          "internalType": "uint256",
          "name": "totalPrice",
          "type": "uint256"
        },
        {
          "internalType": "enum Marketplace.OrderStatus",
          "name": "status",
          "type": "uint8"
        },
        {
          "internalType": "uint256",
          "name": "timestamp",
          "type": "uint256"
        },
        {
          "internalType": "string",
          "name": "shippingDetails",
          "type": "string"
        },
        {
          "internalType": "string",
          "name": "trackingNumber",
          "type": "string"
        }
      ],
      "stateMutability": "view",
      "type": "function"
    },
    {
      "inputs": [
        {
          "internalType": "uint256",
          "name": "_productId",
          "type": "uint256"
        }
      ],
      "name": "getProduct",
      "outputs": [
        {
          "internalType": "uint256",
          "name": "farmId",
          "type": "uint256"
        },
        {
          "internalType": "address",
          "name": "seller",
          "type": "address"
        },
        {
          "internalType": "string",
          "name": "name",
          "type": "string"
        },
        {
          "internalType": "uint256",
          "name": "price",
          "type": "uint256"
        },
        {
          "internalType": "uint256",
          "name": "quantity",
          "type": "uint256"
        },
        {
          "internalType": "enum Marketplace.ProductStatus",
          "name": "status",
          "type": "uint8"
        },
        {
          "internalType": "string",
          "name": "metadataURI",
          "type": "string"
        },
        {
          "internalType": "bool",
          "name": "organic",
          "type": "bool"
        },
        {
          "internalType": "string[]",
          "name": "certifications",
          "type": "string[]"
        },
        {
          "internalType": "uint256",
          "name": "minimumOrder",
          "type": "uint256"
        },
        {
          "internalType": "uint256",
          "name": "maximumOrder",
          "type": "uint256"
        }
      ],
      "stateMutability": "view",
      "type": "function"
    },
    {
      "inputs": [
        {
          "internalType": "bytes32",
          "name": "role",
          "type": "bytes32"
        }
      ],
      "name": "getRoleAdmin",
      "outputs": [
        {
          "internalType": "bytes32",
          "name": "",
          "type": "bytes32"
        }
      ],
      "stateMutability": "view",
      "type": "function"
    },
    {
      "inputs": [
        {
          "internalType": "address",
          "name": "_seller",
          "type": "address"
        }
      ],
      "name": "getSellerOrders",
      "outputs": [
        {
          "internalType": "uint256[]",
          "name": "",
          "type": "uint256[]"
        }
      ],
      "stateMutability": "view",
      "type": "function"
    },
    {
      "inputs": [
        {
          "internalType": "bytes32",
          "name": "role",
          "type": "bytes32"
        },
        {
          "internalType": "address",
          "name": "account",
          "type": "address"
        }
      ],
      "name": "grantRole",
      "outputs": [],
      "stateMutability": "nonpayable",
      "type": "function"
    },
    {
      "inputs": [
        {
          "internalType": "bytes32",
          "name": "role",
          "type": "bytes32"
        },
        {
          "internalType": "address",
          "name": "account",
          "type": "address"
        }
      ],
      "name": "hasRole",
      "outputs": [
        {
          "internalType": "bool",
          "name": "",
          "type": "bool"
        }
      ],
      "stateMutability": "view",
      "type": "function"
    },
    {
      "inputs": [
        {
          "internalType": "uint256",
          "name": "",
          "type": "uint256"
        }
      ],
      "name": "orders",
      "outputs": [
        {
          "internalType": "uint256",
          "name": "productId",
          "type": "uint256"
        },
        {
          "internalType": "address",
          "name": "buyer",
          "type": "address"
        },
        {
          "internalType": "uint256",
          "name": "quantity",
          "type": "uint256"
        },
        {
          "internalType": "uint256",
          "name": "totalPrice",
          "type": "uint256"
        },
        {
          "internalType": "enum Marketplace.OrderStatus",
          "name": "status",
          "type": "uint8"
        },
        {
          "internalType": "uint256",
          "name": "timestamp",
          "type": "uint256"
        },
        {
          "internalType": "string",
          "name": "shippingDetails",
          "type": "string"
        },
        {
          "internalType": "string",
          "name": "trackingNumber",
          "type": "string"
        }
      ],
      "stateMutability": "view",
      "type": "function"
    },
    {
      "inputs": [],
      "name": "paused",
      "outputs": [
        {
          "internalType": "bool",
          "name": "",
          "type": "bool"
        }
      ],
      "stateMutability": "view",
      "type": "function"
    },
    {
      "inputs": [],
      "name": "platformFee",
      "outputs": [
        {
          "internalType": "uint256",
          "name": "",
          "type": "uint256"
        }
      ],
      "stateMutability": "view",
      "type": "function"
    },
    {
      "inputs": [
        {
          "internalType": "uint256",
          "name": "",
          "type": "uint256"
        }
      ],
      "name": "products",
      "outputs": [
        {
          "internalType": "uint256",
          "name": "farmId",
          "type": "uint256"
        },
        {
          "internalType": "address",
          "name": "seller",
          "type": "address"
        },
        {
          "internalType": "string",
          "name": "name",
          "type": "string"
        },
        {
          "internalType": "uint256",
          "name": "price",
          "type": "uint256"
        },
        {
          "internalType": "uint256",
          "name": "quantity",
          "type": "uint256"
        },
        {
          "internalType": "enum Marketplace.ProductStatus",
          "name": "status",
          "type": "uint8"
        },
        {
          "internalType": "string",
          "name": "metadataURI",
          "type": "string"
        },
        {
          "internalType": "bool",
          "name": "organic",
          "type": "bool"
        },
        {
          "internalType": "uint256",
          "name": "minimumOrder",
          "type": "uint256"
        },
        {
          "internalType": "uint256",
          "name": "maximumOrder",
          "type": "uint256"
        }
      ],
      "stateMutability": "view",
      "type": "function"
    },
    {
      "inputs": [
        {
          "internalType": "bytes32",
          "name": "role",
          "type": "bytes32"
        },
        {
          "internalType": "address",
          "name": "callerConfirmation",
          "type": "address"
        }
      ],
      "name": "renounceRole",
      "outputs": [],
      "stateMutability": "nonpayable",
      "type": "function"
    },
    {
      "inputs": [
        {
          "internalType": "bytes32",
          "name": "role",
          "type": "bytes32"
        },
        {
          "internalType": "address",
          "name": "account",
          "type": "address"
        }
      ],
      "name": "revokeRole",
      "outputs": [],
      "stateMutability": "nonpayable",
      "type": "function"
    },
    {
      "inputs": [
        {
          "internalType": "address",
          "name": "",
          "type": "address"
        },
        {
          "internalType": "uint256",
          "name": "",
          "type": "uint256"
        }
      ],
      "name": "sellerOrders",
      "outputs": [
        {
          "internalType": "uint256",
          "name": "",
          "type": "uint256"
        }
      ],
      "stateMutability": "view",
      "type": "function"
    },
    {
      "inputs": [
        {
          "internalType": "bytes4",
          "name": "interfaceId",
          "type": "bytes4"
        }
      ],
      "name": "supportsInterface",
      "outputs": [
        {
          "internalType": "bool",
          "name": "",
          "type": "bool"
        }
      ],
      "stateMutability": "view",
      "type": "function"
    },
    {
      "inputs": [
        {
          "internalType": "uint256",
          "name": "_orderId",
          "type": "uint256"
        },
        {
          "internalType": "enum Marketplace.OrderStatus",
          "name": "_status",
          "type": "uint8"
        },
        {
          "internalType": "string",
          "name": "_trackingNumber",
          "type": "string"
        }
      ],
      "name": "updateOrderStatus",
      "outputs": [],
      "stateMutability": "nonpayable",
      "type": "function"
    },
    {
      "inputs": [
        {
          "internalType": "uint256",
          "name": "_productId",
          "type": "uint256"
        },
        {
          "internalType": "enum Marketplace.ProductStatus",
          "name": "_status",
          "type": "uint8"
        }
      ],
      "name": "updateProductStatus",
      "outputs": [],
      "stateMutability": "nonpayable",
      "type": "function"
    }
  ],
  "bytecode": "0x60a06040523480156200001157600080fd5b50604051620043473803806200434783398181016040528101906200003791906200031c565b600180819055506000600260006101000a81548160ff0219169083151502179055506103e8821115620000a1576040517f08c379a00000000000000000000000000000000000000000000000000000000081526004016200009890620003d9565b60405180910390fd5b8273ffffffffffffffffffffffffffffffffffffffff1660808173ffffffffffffffffffffffffffffffffffffffff168152505081600a8190555080600b81905550620000f86000801b336200010260201b60201c565b50505050620003fb565b60006200011683836200020560201b60201c565b620001fa57600160008085815260200190815260200160002060000160008473ffffffffffffffffffffffffffffffffffffffff1673ffffffffffffffffffffffffffffffffffffffff16815260200190815260200160002060006101000a81548160ff021916908315150217905550620001966200026f60201b60201c565b73ffffffffffffffffffffffffffffffffffffffff168273ffffffffffffffffffffffffffffffffffffffff16847f2f8788117e7eff1d82e926ec794901d17c78024a50270940304540a733656f0d60405160405180910390a460019050620001ff565b600090505b92915050565b600080600084815260200190815260200160002060000160008373ffffffffffffffffffffffffffffffffffffffff1673ffffffffffffffffffffffffffffffffffffffff16815260200190815260200160002060009054906101000a900460ff16905092915050565b600033905090565b600080fd5b600073ffffffffffffffffffffffffffffffffffffffff82169050919050565b6000620002a9826200027c565b9050919050565b620002bb816200029c565b8114620002c757600080fd5b50565b600081519050620002db81620002b0565b92915050565b6000819050919050565b620002f681620002e1565b81146200030257600080fd5b50565b6000815190506200031681620002eb565b92915050565b60008060006060848603121562000338576200033762000277565b5b60006200034886828701620002ca565b93505060206200035b8682870162000305565b92505060406200036e8682870162000305565b9150509250925092565b600082825260208201905092915050565b7f46656520746f6f20686967680000000000000000000000000000000000000000600082015250565b6000620003c1600c8362000378565b9150620003ce8262000389565b602082019050919050565b60006020820190508181036000830152620003f481620003b2565b9050919050565b608051613f226200042560003960008181611397015281816113c501526114b50152613f226000f3fe6080604052600436106101665760003560e01c806387418e4a116100d1578063a85c38ef1161008a578063d09ef24111610064578063d09ef241146105e1578063d547741f14610625578063e4cbac401461064e578063f16b51c11461068b57610166565b8063a85c38ef14610519578063b9db15b41461055d578063d08480fd146105a457610166565b806387418e4a146103e35780638c04e43e1461040e57806391d148541461044b578063920e262114610488578063a217fddf146104b1578063a45f2ebc146104dc57610166565b806345cb45051161012357806345cb45051461029f5780635c975abb146102dc5780636061f7541461030757806360e1102e14610337578063745701e8146103605780637acc0b201461039d57610166565b806301ffc9a71461016b578063248a9ca3146101a857806326232a2e146101e55780632f2ff15d1461021057806336568abe146102395780634500cb6014610262575b600080fd5b34801561017757600080fd5b50610192600480360381019061018d919061265d565b6106b6565b60405161019f91906126a5565b60405180910390f35b3480156101b457600080fd5b506101cf60048036038101906101ca91906126f6565b610730565b6040516101dc9190612732565b60405180910390f35b3480156101f157600080fd5b506101fa61074f565b6040516102079190612766565b60405180910390f35b34801561021c57600080fd5b50610237600480360381019061023291906127df565b610755565b005b34801561024557600080fd5b50610260600480360381019061025b91906127df565b610777565b005b34801561026e57600080fd5b506102896004803603810190610284919061284b565b6107f2565b6040516102969190612766565b60405180910390f35b3480156102ab57600080fd5b506102c660048036038101906102c1919061284b565b610823565b6040516102d39190612766565b60405180910390f35b3480156102e857600080fd5b506102f1610854565b6040516102fe91906126a5565b60405180910390f35b610321600480360381019061031c91906129d1565b61086b565b60405161032e9190612766565b60405180910390f35b34801561034357600080fd5b5061035e60048036038101906103599190612a65565b610d41565b005b34801561036c57600080fd5b5061038760048036038101906103829190612ad4565b61118c565b6040516103949190612bbf565b60405180910390f35b3480156103a957600080fd5b506103c460048036038101906103bf9190612ad4565b6111f7565b6040516103da9a99989796959493929190612ce6565b60405180910390f35b3480156103ef57600080fd5b506103f8611395565b6040516104059190612def565b60405180910390f35b34801561041a57600080fd5b5061043560048036038101906104309190612f1c565b6113b9565b6040516104429190612766565b60405180910390f35b34801561045757600080fd5b50610472600480360381019061046d91906127df565b6118aa565b60405161047f91906126a5565b60405180910390f35b34801561049457600080fd5b506104af60048036038101906104aa919061305f565b611914565b005b3480156104bd57600080fd5b506104c6611a3a565b6040516104d39190612732565b60405180910390f35b3480156104e857600080fd5b5061050360048036038101906104fe919061309f565b611a41565b6040516105109190612bbf565b60405180910390f35b34801561052557600080fd5b50610540600480360381019061053b9190612ad4565b611ad8565b604051610554989796959493929190613114565b60405180910390f35b34801561056957600080fd5b50610584600480360381019061057f9190612ad4565b611c5d565b60405161059b9b9a999897969594939291906132ac565b60405180910390f35b3480156105b057600080fd5b506105cb60048036038101906105c6919061336c565b611f06565b6040516105d89190612766565b60405180910390f35b3480156105ed57600080fd5b5061060860048036038101906106039190612ad4565b611f37565b60405161061c989796959493929190613114565b60405180910390f35b34801561063157600080fd5b5061064c600480360381019061064791906127df565b6120e1565b005b34801561065a57600080fd5b506106756004803603810190610670919061309f565b612103565b6040516106829190612bbf565b60405180910390f35b34801561069757600080fd5b506106a061219a565b6040516106ad9190612766565b60405180910390f35b60007f7965db0b000000000000000000000000000000000000000000000000000000007bffffffffffffffffffffffffffffffffffffffffffffffffffffffff1916827bffffffffffffffffffffffffffffffffffffffffffffffffffffffff191614806107295750610728826121a0565b5b9050919050565b6000806000838152602001908152602001600020600101549050919050565b600a5481565b61075e82610730565b6107678161220a565b610771838361221e565b50505050565b61077f61230f565b73ffffffffffffffffffffffffffffffffffffffff168173ffffffffffffffffffffffffffffffffffffffff16146107e3576040517f6697b23200000000000000000000000000000000000000000000000000000000815260040160405180910390fd5b6107ed8282612317565b505050565b6008602052816000526040600020818154811061080e57600080fd5b90600052602060002001600091509150505481565b6009602052816000526040600020818154811061083f57600080fd5b90600052602060002001600091509150505481565b6000600260009054906101000a900460ff16905090565b6000610875612409565b61087d61244a565b6000600560008681526020019081526020016000209050600160028111156108a8576108a7612c6f565b5b8160050160009054906101000a900460ff1660028111156108cc576108cb612c6f565b5b1461090c576040517f08c379a0000000000000000000000000000000000000000000000000000000008152600401610903906133f8565b60405180910390fd5b8060090154841015610953576040517f08c379a000000000000000000000000000000000000000000000000000000000815260040161094a90613464565b60405180910390fd5b80600a015484111561099a576040517f08c379a0000000000000000000000000000000000000000000000000000000008152600401610991906134d0565b60405180910390fd5b80600401548411156109e1576040517f08c379a00000000000000000000000000000000000000000000000000000000081526004016109d89061353c565b60405180910390fd5b60008482600301546109f3919061358b565b9050803414610a37576040517f08c379a0000000000000000000000000000000000000000000000000000000008152600401610a2e90613619565b60405180910390fd5b610a416004612490565b6000610a4d60046124af565b90506040518061010001604052808881526020013373ffffffffffffffffffffffffffffffffffffffff16815260200187815260200183815260200160016005811115610a9d57610a9c612c6f565b5b815260200142815260200186815260200160405180602001604052806000815250815250600660008381526020019081526020016000206000820151816000015560208201518160010160006101000a81548173ffffffffffffffffffffffffffffffffffffffff021916908373ffffffffffffffffffffffffffffffffffffffff160217905550604082015181600201556060820151816003015560808201518160040160006101000a81548160ff02191690836005811115610b6457610b63612c6f565b5b021790555060a0820151816005015560c0820151816006019081610b88919061383b565b5060e0820151816007019081610b9e919061383b565b5090505085836004016000828254610bb6919061390d565b925050819055506000836004015403610bf75760028360050160006101000a81548160ff02191690836002811115610bf157610bf0612c6f565b5b02179055505b600860003373ffffffffffffffffffffffffffffffffffffffff1673ffffffffffffffffffffffffffffffffffffffff168152602001908152602001600020819080600181540180825580915050600190039060005260206000200160009091909190915055600960008460010160009054906101000a900473ffffffffffffffffffffffffffffffffffffffff1673ffffffffffffffffffffffffffffffffffffffff1673ffffffffffffffffffffffffffffffffffffffff1681526020019081526020016000208190806001815401808255809150506001900390600052602060002001600090919091909150553373ffffffffffffffffffffffffffffffffffffffff1687827f049ba4138a42e7ec9accc4e9139592fa0f1b7a9e4e1aefe2848fd13394dad8dc60405160405180910390a4809350505050610d3a6124bd565b9392505050565b610d4961244a565b60006006600085815260200190815260200160002090506000600560008360000154815260200190815260200160002090508060010160009054906101000a900473ffffffffffffffffffffffffffffffffffffffff1673ffffffffffffffffffffffffffffffffffffffff163373ffffffffffffffffffffffffffffffffffffffff161480610de25750610de16000801b336118aa565b5b610e21576040517f08c379a0000000000000000000000000000000000000000000000000000000008152600401610e189061398d565b60405180910390fd5b60026005811115610e3557610e34612c6f565b5b846005811115610e4857610e47612c6f565b5b03610edc576000835111610e91576040517f08c379a0000000000000000000000000000000000000000000000000000000008152600401610e88906139f9565b60405180910390fd5b82826007019081610ea2919061383b565b50847f3615015033c7d8b7e599d4b759a87c97a647532770b321d6e66d448c25f4297f84604051610ed39190613a19565b60405180910390a25b838260040160006101000a81548160ff02191690836005811115610f0357610f02612c6f565b5b021790555060036005811115610f1c57610f1b612c6f565b5b846005811115610f2f57610f2e612c6f565b5b03611043576000612710600a548460030154610f4b919061358b565b610f559190613a6a565b90506000818460030154610f69919061390d565b905060008360010160009054906101000a900473ffffffffffffffffffffffffffffffffffffffff1673ffffffffffffffffffffffffffffffffffffffff1682604051610fb590613acc565b60006040518083038185875af1925050503d8060008114610ff2576040519150601f19603f3d011682016040523d82523d6000602084013e610ff7565b606091505b505090508061103b576040517f08c379a000000000000000000000000000000000000000000000000000000000815260040161103290613b2d565b60405180910390fd5b505050611145565b60058081111561105657611055612c6f565b5b84600581111561106957611068612c6f565b5b036111445760008260010160009054906101000a900473ffffffffffffffffffffffffffffffffffffffff1673ffffffffffffffffffffffffffffffffffffffff1683600301546040516110bc90613acc565b60006040518083038185875af1925050503d80600081146110f9576040519150601f19603f3d011682016040523d82523d6000602084013e6110fe565b606091505b5050905080611142576040517f08c379a000000000000000000000000000000000000000000000000000000000815260040161113990613b99565b60405180910390fd5b505b5b847fd9a86b644eb5f5b43cc8a700849852481080361c7a4b00ba646d1b46c5585f95856040516111759190613bb9565b60405180910390a250506111876124bd565b505050565b6060600760008381526020019081526020016000208054806020026020016040519081016040528092919081815260200182805480156111eb57602002820191906000526020600020905b8154815260200190600101908083116111d7575b50505050509050919050565b60056020528060005260406000206000915090508060000154908060010160009054906101000a900473ffffffffffffffffffffffffffffffffffffffff169080600201805461124690613668565b80601f016020809104026020016040519081016040528092919081815260200182805461127290613668565b80156112bf5780601f10611294576101008083540402835291602001916112bf565b820191906000526020600020905b8154815290600101906020018083116112a257829003601f168201915b5050505050908060030154908060040154908060050160009054906101000a900460ff16908060060180546112f390613668565b80601f016020809104026020016040519081016040528092919081815260200182805461131f90613668565b801561136c5780601f106113415761010080835404028352916020019161136c565b820191906000526020600020905b81548152906001019060200180831161134f57829003601f168201915b5050505050908060070160009054906101000a900460ff169080600901549080600a015490508a565b7f000000000000000000000000000000000000000000000000000000000000000081565b60006113c3612409565b7f000000000000000000000000000000000000000000000000000000000000000073ffffffffffffffffffffffffffffffffffffffff1663c9a848b28b6040518263ffffffff1660e01b815260040161141c9190612766565b602060405180830381865afa158015611439573d6000803e3d6000fd5b505050506040513d601f19601f8201168201806040525081019061145d9190613be9565b61149c576040517f08c379a000000000000000000000000000000000000000000000000000000000815260040161149390613c62565b60405180910390fd5b3373ffffffffffffffffffffffffffffffffffffffff167f000000000000000000000000000000000000000000000000000000000000000073ffffffffffffffffffffffffffffffffffffffff1663bc7aa9338c6040518263ffffffff1660e01b815260040161150c9190612766565b602060405180830381865afa158015611529573d6000803e3d6000fd5b505050506040513d601f19601f8201168201806040525081019061154d9190613c97565b73ffffffffffffffffffffffffffffffffffffffff16146115a3576040517f08c379a000000000000000000000000000000000000000000000000000000000815260040161159a90613d10565b60405180910390fd5b600088116115e6576040517f08c379a00000000000000000000000000000000000000000000000000000000081526004016115dd90613d7c565b60405180910390fd5b60008711611629576040517f08c379a000000000000000000000000000000000000000000000000000000000815260040161162090613de8565b60405180910390fd5b8282101561166c576040517f08c379a000000000000000000000000000000000000000000000000000000000815260040161166390613e54565b60405180910390fd5b6116766003612490565b600061168260036124af565b90506040518061016001604052808c81526020013373ffffffffffffffffffffffffffffffffffffffff1681526020018b81526020018a8152602001898152602001600060028111156116d8576116d7612c6f565b5b8152602001888152602001871515815260200186815260200185815260200184815250600560008381526020019081526020016000206000820151816000015560208201518160010160006101000a81548173ffffffffffffffffffffffffffffffffffffffff021916908373ffffffffffffffffffffffffffffffffffffffff1602179055506040820151816002019081611774919061383b565b50606082015181600301556080820151816004015560a08201518160050160006101000a81548160ff021916908360028111156117b4576117b3612c6f565b5b021790555060c08201518160060190816117ce919061383b565b5060e08201518160070160006101000a81548160ff02191690831515021790555061010082015181600801908051906020019061180c929190612517565b50610120820151816009015561014082015181600a0155905050600760008c81526020019081526020016000208190806001815401808255809150506001900390600052602060002001600090919091909150558a817faf2a6d5401f0566254518f86923b3b89441fade4708d38a678db123e9f6b63658c6040516118919190613a19565b60405180910390a3809150509998505050505050505050565b600080600084815260200190815260200160002060000160008373ffffffffffffffffffffffffffffffffffffffff1673ffffffffffffffffffffffffffffffffffffffff16815260200190815260200160002060009054906101000a900460ff16905092915050565b60006005600084815260200190815260200160002090508060010160009054906101000a900473ffffffffffffffffffffffffffffffffffffffff1673ffffffffffffffffffffffffffffffffffffffff163373ffffffffffffffffffffffffffffffffffffffff16148061199257506119916000801b336118aa565b5b6119d1576040517f08c379a00000000000000000000000000000000000000000000000000000000081526004016119c89061398d565b60405180910390fd5b818160050160006101000a81548160ff021916908360028111156119f8576119f7612c6f565b5b0217905550827fb87b530dbf7e96bcdf03e8c51bea4a9900239ee28d9327ac38c8ef2f0bb96fe983604051611a2d9190613e74565b60405180910390a2505050565b6000801b81565b6060600860008373ffffffffffffffffffffffffffffffffffffffff1673ffffffffffffffffffffffffffffffffffffffff168152602001908152602001600020805480602002602001604051908101604052809291908181526020018280548015611acc57602002820191906000526020600020905b815481526020019060010190808311611ab8575b50505050509050919050565b60066020528060005260406000206000915090508060000154908060010160009054906101000a900473ffffffffffffffffffffffffffffffffffffffff16908060020154908060030154908060040160009054906101000a900460ff1690806005015490806006018054611b4c90613668565b80601f0160208091040260200160405190810160405280929190818152602001828054611b7890613668565b8015611bc55780601f10611b9a57610100808354040283529160200191611bc5565b820191906000526020600020905b815481529060010190602001808311611ba857829003601f168201915b505050505090806007018054611bda90613668565b80601f0160208091040260200160405190810160405280929190818152602001828054611c0690613668565b8015611c535780601f10611c2857610100808354040283529160200191611c53565b820191906000526020600020905b815481529060010190602001808311611c3657829003601f168201915b5050505050905088565b600080606060008060006060600060606000806000600560008e8152602001908152602001600020905080600001548160010160009054906101000a900473ffffffffffffffffffffffffffffffffffffffff1682600201836003015484600401548560050160009054906101000a900460ff16866006018760070160009054906101000a900460ff168860080189600901548a600a0154888054611d0190613668565b80601f0160208091040260200160405190810160405280929190818152602001828054611d2d90613668565b8015611d7a5780601f10611d4f57610100808354040283529160200191611d7a565b820191906000526020600020905b815481529060010190602001808311611d5d57829003601f168201915b50505050509850848054611d8d90613668565b80601f0160208091040260200160405190810160405280929190818152602001828054611db990613668565b8015611e065780601f10611ddb57610100808354040283529160200191611e06565b820191906000526020600020905b815481529060010190602001808311611de957829003601f168201915b5050505050945082805480602002602001604051908101604052809291908181526020016000905b82821015611eda578382906000526020600020018054611e4d90613668565b80601f0160208091040260200160405190810160405280929190818152602001828054611e7990613668565b8015611ec65780601f10611e9b57610100808354040283529160200191611ec6565b820191906000526020600020905b815481529060010190602001808311611ea957829003601f168201915b505050505081526020019060010190611e2e565b5050505092509b509b509b509b509b509b509b509b509b509b509b505091939597999b90929496989a50565b60076020528160005260406000208181548110611f2257600080fd5b90600052602060002001600091509150505481565b6000806000806000806060806000600660008b8152602001908152602001600020905080600001548160010160009054906101000a900473ffffffffffffffffffffffffffffffffffffffff16826002015483600301548460040160009054906101000a900460ff1685600501548660060187600701818054611fb990613668565b80601f0160208091040260200160405190810160405280929190818152602001828054611fe590613668565b80156120325780601f1061200757610100808354040283529160200191612032565b820191906000526020600020905b81548152906001019060200180831161201557829003601f168201915b5050505050915080805461204590613668565b80601f016020809104026020016040519081016040528092919081815260200182805461207190613668565b80156120be5780601f10612093576101008083540402835291602001916120be565b820191906000526020600020905b8154815290600101906020018083116120a157829003601f168201915b505050505090509850985098509850985098509850985050919395975091939597565b6120ea82610730565b6120f38161220a565b6120fd8383612317565b50505050565b6060600960008373ffffffffffffffffffffffffffffffffffffffff1673ffffffffffffffffffffffffffffffffffffffff16815260200190815260200160002080548060200260200160405190810160405280929190818152602001828054801561218e57602002820191906000526020600020905b81548152602001906001019080831161217a575b50505050509050919050565b600b5481565b60007f01ffc9a7000000000000000000000000000000000000000000000000000000007bffffffffffffffffffffffffffffffffffffffffffffffffffffffff1916827bffffffffffffffffffffffffffffffffffffffffffffffffffffffff1916149050919050565b61221b8161221661230f565b6124c6565b50565b600061222a83836118aa565b61230457600160008085815260200190815260200160002060000160008473ffffffffffffffffffffffffffffffffffffffff1673ffffffffffffffffffffffffffffffffffffffff16815260200190815260200160002060006101000a81548160ff0219169083151502179055506122a161230f565b73ffffffffffffffffffffffffffffffffffffffff168273ffffffffffffffffffffffffffffffffffffffff16847f2f8788117e7eff1d82e926ec794901d17c78024a50270940304540a733656f0d60405160405180910390a460019050612309565b600090505b92915050565b600033905090565b600061232383836118aa565b156123fe57600080600085815260200190815260200160002060000160008473ffffffffffffffffffffffffffffffffffffffff1673ffffffffffffffffffffffffffffffffffffffff16815260200190815260200160002060006101000a81548160ff02191690831515021790555061239b61230f565b73ffffffffffffffffffffffffffffffffffffffff168273ffffffffffffffffffffffffffffffffffffffff16847ff6391f5c32d9c69d2a47ea670b442974b53935d1edc7fd64eb21e047a839171b60405160405180910390a460019050612403565b600090505b92915050565b612411610854565b15612448576040517fd93c066500000000000000000000000000000000000000000000000000000000815260040160405180910390fd5b565b600260015403612486576040517f3ee5aeb500000000000000000000000000000000000000000000000000000000815260040160405180910390fd5b6002600181905550565b60018160000160008282546124a59190613e8f565b9250508190555050565b600081600001549050919050565b60018081905550565b6124d082826118aa565b6125135780826040517fe2517d3f00000000000000000000000000000000000000000000000000000000815260040161250a929190613ec3565b60405180910390fd5b5050565b82805482825590600052602060002090810192821561255f579160200282015b8281111561255e57825182908161254e919061383b565b5091602001919060010190612537565b5b50905061256c9190612570565b5090565b5b8082111561259057600081816125879190612594565b50600101612571565b5090565b5080546125a090613668565b6000825580601f106125b257506125d1565b601f0160209004906000526020600020908101906125d091906125d4565b5b50565b5b808211156125ed5760008160009055506001016125d5565b5090565b6000604051905090565b600080fd5b600080fd5b60007fffffffff0000000000000000000000000000000000000000000000000000000082169050919050565b61263a81612605565b811461264557600080fd5b50565b60008135905061265781612631565b92915050565b600060208284031215612673576126726125fb565b5b600061268184828501612648565b91505092915050565b60008115159050919050565b61269f8161268a565b82525050565b60006020820190506126ba6000830184612696565b92915050565b6000819050919050565b6126d3816126c0565b81146126de57600080fd5b50565b6000813590506126f0816126ca565b92915050565b60006020828403121561270c5761270b6125fb565b5b600061271a848285016126e1565b91505092915050565b61272c816126c0565b82525050565b60006020820190506127476000830184612723565b92915050565b6000819050919050565b6127608161274d565b82525050565b600060208201905061277b6000830184612757565b92915050565b600073ffffffffffffffffffffffffffffffffffffffff82169050919050565b60006127ac82612781565b9050919050565b6127bc816127a1565b81146127c757600080fd5b50565b6000813590506127d9816127b3565b92915050565b600080604083850312156127f6576127f56125fb565b5b6000612804858286016126e1565b9250506020612815858286016127ca565b9150509250929050565b6128288161274d565b811461283357600080fd5b50565b6000813590506128458161281f565b92915050565b60008060408385031215612862576128616125fb565b5b6000612870858286016127ca565b925050602061288185828601612836565b9150509250929050565b600080fd5b600080fd5b6000601f19601f8301169050919050565b7f4e487b7100000000000000000000000000000000000000000000000000000000600052604160045260246000fd5b6128de82612895565b810181811067ffffffffffffffff821117156128fd576128fc6128a6565b5b80604052505050565b60006129106125f1565b905061291c82826128d5565b919050565b600067ffffffffffffffff82111561293c5761293b6128a6565b5b61294582612895565b9050602081019050919050565b82818337600083830152505050565b600061297461296f84612921565b612906565b9050828152602081018484840111156129905761298f612890565b5b61299b848285612952565b509392505050565b600082601f8301126129b8576129b761288b565b5b81356129c8848260208601612961565b91505092915050565b6000806000606084860312156129ea576129e96125fb565b5b60006129f886828701612836565b9350506020612a0986828701612836565b925050604084013567ffffffffffffffff811115612a2a57612a29612600565b5b612a36868287016129a3565b9150509250925092565b60068110612a4d57600080fd5b50565b600081359050612a5f81612a40565b92915050565b600080600060608486031215612a7e57612a7d6125fb565b5b6000612a8c86828701612836565b9350506020612a9d86828701612a50565b925050604084013567ffffffffffffffff811115612abe57612abd612600565b5b612aca868287016129a3565b9150509250925092565b600060208284031215612aea57612ae96125fb565b5b6000612af884828501612836565b91505092915050565b600081519050919050565b600082825260208201905092915050565b6000819050602082019050919050565b612b368161274d565b82525050565b6000612b488383612b2d565b60208301905092915050565b6000602082019050919050565b6000612b6c82612b01565b612b768185612b0c565b9350612b8183612b1d565b8060005b83811015612bb2578151612b998882612b3c565b9750612ba483612b54565b925050600181019050612b85565b5085935050505092915050565b60006020820190508181036000830152612bd98184612b61565b905092915050565b612bea816127a1565b82525050565b600081519050919050565b600082825260208201905092915050565b60005b83811015612c2a578082015181840152602081019050612c0f565b60008484015250505050565b6000612c4182612bf0565b612c4b8185612bfb565b9350612c5b818560208601612c0c565b612c6481612895565b840191505092915050565b7f4e487b7100000000000000000000000000000000000000000000000000000000600052602160045260246000fd5b60038110612caf57612cae612c6f565b5b50565b6000819050612cc082612c9e565b919050565b6000612cd082612cb2565b9050919050565b612ce081612cc5565b82525050565b600061014082019050612cfc600083018d612757565b612d09602083018c612be1565b8181036040830152612d1b818b612c36565b9050612d2a606083018a612757565b612d376080830189612757565b612d4460a0830188612cd7565b81810360c0830152612d568187612c36565b9050612d6560e0830186612696565b612d73610100830185612757565b612d81610120830184612757565b9b9a5050505050505050505050565b6000819050919050565b6000612db5612db0612dab84612781565b612d90565b612781565b9050919050565b6000612dc782612d9a565b9050919050565b6000612dd982612dbc565b9050919050565b612de981612dce565b82525050565b6000602082019050612e046000830184612de0565b92915050565b612e138161268a565b8114612e1e57600080fd5b50565b600081359050612e3081612e0a565b92915050565b600067ffffffffffffffff821115612e5157612e506128a6565b5b602082029050602081019050919050565b600080fd5b6000612e7a612e7584612e36565b612906565b90508083825260208201905060208402830185811115612e9d57612e9c612e62565b5b835b81811015612ee457803567ffffffffffffffff811115612ec257612ec161288b565b5b808601612ecf89826129a3565b85526020850194505050602081019050612e9f565b5050509392505050565b600082601f830112612f0357612f0261288b565b5b8135612f13848260208601612e67565b91505092915050565b60008060008060008060008060006101208a8c031215612f3f57612f3e6125fb565b5b6000612f4d8c828d01612836565b99505060208a013567ffffffffffffffff811115612f6e57612f6d612600565b5b612f7a8c828d016129a3565b9850506040612f8b8c828d01612836565b9750506060612f9c8c828d01612836565b96505060808a013567ffffffffffffffff811115612fbd57612fbc612600565b5b612fc98c828d016129a3565b95505060a0612fda8c828d01612e21565b94505060c08a013567ffffffffffffffff811115612ffb57612ffa612600565b5b6130078c828d01612eee565b93505060e06130188c828d01612836565b92505061010061302a8c828d01612836565b9150509295985092959850929598565b6003811061304757600080fd5b50565b6000813590506130598161303a565b92915050565b60008060408385031215613076576130756125fb565b5b600061308485828601612836565b92505060206130958582860161304a565b9150509250929050565b6000602082840312156130b5576130b46125fb565b5b60006130c3848285016127ca565b91505092915050565b600681106130dd576130dc612c6f565b5b50565b60008190506130ee826130cc565b919050565b60006130fe826130e0565b9050919050565b61310e816130f3565b82525050565b60006101008201905061312a600083018b612757565b613137602083018a612be1565b6131446040830189612757565b6131516060830188612757565b61315e6080830187613105565b61316b60a0830186612757565b81810360c083015261317d8185612c36565b905081810360e08301526131918184612c36565b90509998505050505050505050565b600081519050919050565b600082825260208201905092915050565b6000819050602082019050919050565b600082825260208201905092915050565b60006131e882612bf0565b6131f281856131cc565b9350613202818560208601612c0c565b61320b81612895565b840191505092915050565b600061322283836131dd565b905092915050565b6000602082019050919050565b6000613242826131a0565b61324c81856131ab565b93508360208202850161325e856131bc565b8060005b8581101561329a578484038952815161327b8582613216565b94506132868361322a565b925060208a01995050600181019050613262565b50829750879550505050505092915050565b6000610160820190506132c2600083018e612757565b6132cf602083018d612be1565b81810360408301526132e1818c612c36565b90506132f0606083018b612757565b6132fd608083018a612757565b61330a60a0830189612cd7565b81810360c083015261331c8188612c36565b905061332b60e0830187612696565b81810361010083015261333e8186613237565b905061334e610120830185612757565b61335c610140830184612757565b9c9b505050505050505050505050565b60008060408385031215613383576133826125fb565b5b600061339185828601612836565b92505060206133a285828601612836565b9150509250929050565b7f50726f64756374206e6f7420617661696c61626c650000000000000000000000600082015250565b60006133e2601583612bfb565b91506133ed826133ac565b602082019050919050565b60006020820190508181036000830152613411816133d5565b9050919050565b7f42656c6f77206d696e696d756d206f7264657200000000000000000000000000600082015250565b600061344e601383612bfb565b915061345982613418565b602082019050919050565b6000602082019050818103600083015261347d81613441565b9050919050565b7f45786365656473206d6178696d756d206f726465720000000000000000000000600082015250565b60006134ba601583612bfb565b91506134c582613484565b602082019050919050565b600060208201905081810360008301526134e9816134ad565b9050919050565b7f496e73756666696369656e74207175616e746974790000000000000000000000600082015250565b6000613526601583612bfb565b9150613531826134f0565b602082019050919050565b6000602082019050818103600083015261355581613519565b9050919050565b7f4e487b7100000000000000000000000000000000000000000000000000000000600052601160045260246000fd5b60006135968261274d565b91506135a18361274d565b92508282026135af8161274d565b915082820484148315176135c6576135c561355c565b5b5092915050565b7f496e636f7272656374207061796d656e74000000000000000000000000000000600082015250565b6000613603601183612bfb565b915061360e826135cd565b602082019050919050565b60006020820190508181036000830152613632816135f6565b9050919050565b7f4e487b7100000000000000000000000000000000000000000000000000000000600052602260045260246000fd5b6000600282049050600182168061368057607f821691505b60208210810361369357613692613639565b5b50919050565b60008190508160005260206000209050919050565b60006020601f8301049050919050565b600082821b905092915050565b6000600883026136fb7fffffffffffffffffffffffffffffffffffffffffffffffffffffffffffffffff826136be565b61370586836136be565b95508019841693508086168417925050509392505050565b600061373861373361372e8461274d565b612d90565b61274d565b9050919050565b6000819050919050565b6137528361371d565b61376661375e8261373f565b8484546136cb565b825550505050565b600090565b61377b61376e565b613786818484613749565b505050565b5b818110156137aa5761379f600082613773565b60018101905061378c565b5050565b601f8211156137ef576137c081613699565b6137c9846136ae565b810160208510156137d8578190505b6137ec6137e4856136ae565b83018261378b565b50505b505050565b600082821c905092915050565b6000613812600019846008026137f4565b1980831691505092915050565b600061382b8383613801565b9150826002028217905092915050565b61384482612bf0565b67ffffffffffffffff81111561385d5761385c6128a6565b5b6138678254613668565b6138728282856137ae565b600060209050601f8311600181146138a55760008415613893578287015190505b61389d858261381f565b865550613905565b601f1984166138b386613699565b60005b828110156138db578489015182556001820191506020850194506020810190506138b6565b868310156138f857848901516138f4601f891682613801565b8355505b6001600288020188555050505b505050505050565b60006139188261274d565b91506139238361274d565b925082820390508181111561393b5761393a61355c565b5b92915050565b7f556e617574686f72697a65640000000000000000000000000000000000000000600082015250565b6000613977600c83612bfb565b915061398282613941565b602082019050919050565b600060208201905081810360008301526139a68161396a565b9050919050565b7f547261636b696e67206e756d6265722072657175697265640000000000000000600082015250565b60006139e3601883612bfb565b91506139ee826139ad565b602082019050919050565b60006020820190508181036000830152613a12816139d6565b9050919050565b60006020820190508181036000830152613a338184612c36565b905092915050565b7f4e487b7100000000000000000000000000000000000000000000000000000000600052601260045260246000fd5b6000613a758261274d565b9150613a808361274d565b925082613a9057613a8f613a3b565b5b828204905092915050565b600081905092915050565b50565b6000613ab6600083613a9b565b9150613ac182613aa6565b600082019050919050565b6000613ad782613aa9565b9150819050919050565b7f5061796d656e74206661696c6564000000000000000000000000000000000000600082015250565b6000613b17600e83612bfb565b9150613b2282613ae1565b602082019050919050565b60006020820190508181036000830152613b4681613b0a565b9050919050565b7f526566756e64206661696c656400000000000000000000000000000000000000600082015250565b6000613b83600d83612bfb565b9150613b8e82613b4d565b602082019050919050565b60006020820190508181036000830152613bb281613b76565b9050919050565b6000602082019050613bce6000830184613105565b92915050565b600081519050613be381612e0a565b92915050565b600060208284031215613bff57613bfe6125fb565b5b6000613c0d84828501613bd4565b91505092915050565b7f4661726d206e6f74207665726966696564000000000000000000000000000000600082015250565b6000613c4c601183612bfb565b9150613c5782613c16565b602082019050919050565b60006020820190508181036000830152613c7b81613c3f565b9050919050565b600081519050613c91816127b3565b92915050565b600060208284031215613cad57613cac6125fb565b5b6000613cbb84828501613c82565b91505092915050565b7f4e6f74206661726d206f776e6572000000000000000000000000000000000000600082015250565b6000613cfa600e83612bfb565b9150613d0582613cc4565b602082019050919050565b60006020820190508181036000830152613d2981613ced565b9050919050565b7f496e76616c696420707269636500000000000000000000000000000000000000600082015250565b6000613d66600d83612bfb565b9150613d7182613d30565b602082019050919050565b60006020820190508181036000830152613d9581613d59565b9050919050565b7f496e76616c6964207175616e7469747900000000000000000000000000000000600082015250565b6000613dd2601083612bfb565b9150613ddd82613d9c565b602082019050919050565b60006020820190508181036000830152613e0181613dc5565b9050919050565b7f496e76616c6964206f72646572206c696d697473000000000000000000000000600082015250565b6000613e3e601483612bfb565b9150613e4982613e08565b602082019050919050565b60006020820190508181036000830152613e6d81613e31565b9050919050565b6000602082019050613e896000830184612cd7565b92915050565b6000613e9a8261274d565b9150613ea58361274d565b9250828201905080821115613ebd57613ebc61355c565b5b92915050565b6000604082019050613ed86000830185612be1565b613ee56020830184612723565b939250505056fea26469706673582212207779819d11da0fbeb9fc5a7f83c2acd95a6ef120b23df8f0dfd594a5f060785e64736f6c63430008180033",
  "linkReferences": {},
  "deployedLinkReferences": {}
}