{
  "_format": "hh-sol-artifact-1",
  "contractName": "LoanManager",
  "sourceName": "contracts/LoanManager.sol",
  "abi": [
    {
      "inputs": [
        {
          "internalType": "address",
          "name": "_farmToken",
          "type": "address"
        }
      ],
      "stateMutability": "nonpayable",
      "type": "constructor"
    },
    {
      "inputs": [],
      "name": "AccessControlBadConfirmation",
      "type": "error"
    },
    {
      "inputs": [
        {
          "internalType": "address",
          "name": "account",
          "type": "address"
        },
        {
          "internalType": "bytes32",
          "name": "neededRole",
          "type": "bytes32"
        }
      ],
      "name": "AccessControlUnauthorizedAccount",
      "type": "error"
    },
    {
      "anonymous": false,
      "inputs": [
        {
          "indexed": false,
          "internalType": "uint256",
          "name": "loanId",
          "type": "uint256"
        }
      ],
      "name": "LoanApproved",
      "type": "event"
    },
    {
      "anonymous": false,
      "inputs": [
        {
          "indexed": false,
          "internalType": "uint256",
          "name": "loanId",
          "type": "uint256"
        }
      ],
      "name": "LoanRepaid",
      "type": "event"
    },
    {
      "anonymous": false,
      "inputs": [
        {
          "indexed": false,
          "internalType": "uint256",
          "name": "loanId",
          "type": "uint256"
        },
        {
          "indexed": false,
          "internalType": "address",
          "name": "borrower",
          "type": "address"
        },
        {
          "indexed": false,
          "internalType": "uint256",
          "name": "tokenId",
          "type": "uint256"
        },
        {
          "indexed": false,
          "internalType": "uint256",
          "name": "amount",
          "type": "uint256"
        }
      ],
      "name": "LoanRequested",
      "type": "event"
    },
    {
      "anonymous": false,
      "inputs": [
        {
          "indexed": true,
          "internalType": "bytes32",
          "name": "role",
          "type": "bytes32"
        },
        {
          "indexed": true,
          "internalType": "bytes32",
          "name": "previousAdminRole",
          "type": "bytes32"
        },
        {
          "indexed": true,
          "internalType": "bytes32",
          "name": "newAdminRole",
          "type": "bytes32"
        }
      ],
      "name": "RoleAdminChanged",
      "type": "event"
    },
    {
      "anonymous": false,
      "inputs": [
        {
          "indexed": true,
          "internalType": "bytes32",
          "name": "role",
          "type": "bytes32"
        },
        {
          "indexed": true,
          "internalType": "address",
          "name": "account",
          "type": "address"
        },
        {
          "indexed": true,
          "internalType": "address",
          "name": "sender",
          "type": "address"
        }
      ],
      "name": "RoleGranted",
      "type": "event"
    },
    {
      "anonymous": false,
      "inputs": [
        {
          "indexed": true,
          "internalType": "bytes32",
          "name": "role",
          "type": "bytes32"
        },
        {
          "indexed": true,
          "internalType": "address",
          "name": "account",
          "type": "address"
        },
        {
          "indexed": true,
          "internalType": "address",
          "name": "sender",
          "type": "address"
        }
      ],
      "name": "RoleRevoked",
      "type": "event"
    },
    {
      "inputs": [],
      "name": "DEFAULT_ADMIN_ROLE",
      "outputs": [
        {
          "internalType": "bytes32",
          "name": "",
          "type": "bytes32"
        }
      ],
      "stateMutability": "view",
      "type": "function"
    },
    {
      "inputs": [
        {
          "internalType": "uint256",
          "name": "loanId",
          "type": "uint256"
        }
      ],
      "name": "approveLoan",
      "outputs": [],
      "stateMutability": "nonpayable",
      "type": "function"
    },
    {
      "inputs": [],
      "name": "farmToken",
      "outputs": [
        {
          "internalType": "contract IERC721",
          "name": "",
          "type": "address"
        }
      ],
      "stateMutability": "view",
      "type": "function"
    },
    {
      "inputs": [
        {
          "internalType": "bytes32",
          "name": "role",
          "type": "bytes32"
        }
      ],
      "name": "getRoleAdmin",
      "outputs": [
        {
          "internalType": "bytes32",
          "name": "",
          "type": "bytes32"
        }
      ],
      "stateMutability": "view",
      "type": "function"
    },
    {
      "inputs": [
        {
          "internalType": "bytes32",
          "name": "role",
          "type": "bytes32"
        },
        {
          "internalType": "address",
          "name": "account",
          "type": "address"
        }
      ],
      "name": "grantRole",
      "outputs": [],
      "stateMutability": "nonpayable",
      "type": "function"
    },
    {
      "inputs": [
        {
          "internalType": "bytes32",
          "name": "role",
          "type": "bytes32"
        },
        {
          "internalType": "address",
          "name": "account",
          "type": "address"
        }
      ],
      "name": "hasRole",
      "outputs": [
        {
          "internalType": "bool",
          "name": "",
          "type": "bool"
        }
      ],
      "stateMutability": "view",
      "type": "function"
    },
    {
      "inputs": [],
      "name": "loanCounter",
      "outputs": [
        {
          "internalType": "uint256",
          "name": "",
          "type": "uint256"
        }
      ],
      "stateMutability": "view",
      "type": "function"
    },
    {
      "inputs": [
        {
          "internalType": "uint256",
          "name": "",
          "type": "uint256"
        }
      ],
      "name": "loans",
      "outputs": [
        {
          "internalType": "address",
          "name": "borrower",
          "type": "address"
        },
        {
          "internalType": "uint256",
          "name": "tokenId",
          "type": "uint256"
        },
        {
          "internalType": "uint256",
          "name": "amount",
          "type": "uint256"
        },
        {
          "internalType": "uint256",
          "name": "interestRate",
          "type": "uint256"
        },
        {
          "internalType": "uint256",
          "name": "duration",
          "type": "uint256"
        },
        {
          "internalType": "uint256",
          "name": "startTime",
          "type": "uint256"
        },
        {
          "internalType": "bool",
          "name": "isActive",
          "type": "bool"
        }
      ],
      "stateMutability": "view",
      "type": "function"
    },
    {
      "inputs": [
        {
          "internalType": "bytes32",
          "name": "role",
          "type": "bytes32"
        },
        {
          "internalType": "address",
          "name": "callerConfirmation",
          "type": "address"
        }
      ],
      "name": "renounceRole",
      "outputs": [],
      "stateMutability": "nonpayable",
      "type": "function"
    },
    {
      "inputs": [
        {
          "internalType": "uint256",
          "name": "loanId",
          "type": "uint256"
        }
      ],
      "name": "repayLoan",
      "outputs": [],
      "stateMutability": "payable",
      "type": "function"
    },
    {
      "inputs": [
        {
          "internalType": "uint256",
          "name": "tokenId",
          "type": "uint256"
        },
        {
          "internalType": "uint256",
          "name": "amount",
          "type": "uint256"
        },
        {
          "internalType": "uint256",
          "name": "interestRate",
          "type": "uint256"
        },
        {
          "internalType": "uint256",
          "name": "duration",
          "type": "uint256"
        }
      ],
      "name": "requestLoan",
      "outputs": [],
      "stateMutability": "nonpayable",
      "type": "function"
    },
    {
      "inputs": [
        {
          "internalType": "bytes32",
          "name": "role",
          "type": "bytes32"
        },
        {
          "internalType": "address",
          "name": "account",
          "type": "address"
        }
      ],
      "name": "revokeRole",
      "outputs": [],
      "stateMutability": "nonpayable",
      "type": "function"
    },
    {
      "inputs": [
        {
          "internalType": "bytes4",
          "name": "interfaceId",
          "type": "bytes4"
        }
      ],
      "name": "supportsInterface",
      "outputs": [
        {
          "internalType": "bool",
          "name": "",
          "type": "bool"
        }
      ],
      "stateMutability": "view",
      "type": "function"
    }
  ],
  "bytecode": "0x60806040523480156200001157600080fd5b5060405162001a5a38038062001a5a833981810160405281019062000037919062000274565b80600260006101000a81548173ffffffffffffffffffffffffffffffffffffffff021916908373ffffffffffffffffffffffffffffffffffffffff1602179055506200008d6000801b336200009560201b60201c565b5050620002a6565b6000620000a983836200019860201b60201c565b6200018d57600160008085815260200190815260200160002060000160008473ffffffffffffffffffffffffffffffffffffffff1673ffffffffffffffffffffffffffffffffffffffff16815260200190815260200160002060006101000a81548160ff021916908315150217905550620001296200020260201b60201c565b73ffffffffffffffffffffffffffffffffffffffff168273ffffffffffffffffffffffffffffffffffffffff16847f2f8788117e7eff1d82e926ec794901d17c78024a50270940304540a733656f0d60405160405180910390a46001905062000192565b600090505b92915050565b600080600084815260200190815260200160002060000160008373ffffffffffffffffffffffffffffffffffffffff1673ffffffffffffffffffffffffffffffffffffffff16815260200190815260200160002060009054906101000a900460ff16905092915050565b600033905090565b600080fd5b600073ffffffffffffffffffffffffffffffffffffffff82169050919050565b60006200023c826200020f565b9050919050565b6200024e816200022f565b81146200025a57600080fd5b50565b6000815190506200026e8162000243565b92915050565b6000602082840312156200028d576200028c6200020a565b5b60006200029d848285016200025d565b91505092915050565b6117a480620002b66000396000f3fe6080604052600436106100c25760003560e01c806391d148541161007f578063ab7b1c8911610059578063ab7b1c8914610278578063c2442f9314610294578063d547741f146102bf578063e1ec3c68146102e8576100c2565b806391d14854146101e7578063a217fddf14610224578063aadc1ac11461024f576100c2565b806301ffc9a7146100c7578063248a9ca3146101045780632f2ff15d1461014157806334d9289e1461016a57806336568abe14610195578063753c7ff9146101be575b600080fd5b3480156100d357600080fd5b506100ee60048036038101906100e99190610f93565b61032b565b6040516100fb9190610fdb565b60405180910390f35b34801561011057600080fd5b5061012b6004803603810190610126919061102c565b6103a5565b6040516101389190611068565b60405180910390f35b34801561014d57600080fd5b50610168600480360381019061016391906110e1565b6103c4565b005b34801561017657600080fd5b5061017f6103e6565b60405161018c919061113a565b60405180910390f35b3480156101a157600080fd5b506101bc60048036038101906101b791906110e1565b6103ec565b005b3480156101ca57600080fd5b506101e560048036038101906101e09190611181565b610467565b005b3480156101f357600080fd5b5061020e600480360381019061020991906110e1565b61075c565b60405161021b9190610fdb565b60405180910390f35b34801561023057600080fd5b506102396107c6565b6040516102469190611068565b60405180910390f35b34801561025b57600080fd5b50610276600480360381019061027191906111e8565b6107cd565b005b610292600480360381019061028d91906111e8565b610914565b005b3480156102a057600080fd5b506102a9610b93565b6040516102b69190611274565b60405180910390f35b3480156102cb57600080fd5b506102e660048036038101906102e191906110e1565b610bb9565b005b3480156102f457600080fd5b5061030f600480360381019061030a91906111e8565b610bdb565b604051610322979695949392919061129e565b60405180910390f35b60007f7965db0b000000000000000000000000000000000000000000000000000000007bffffffffffffffffffffffffffffffffffffffffffffffffffffffff1916827bffffffffffffffffffffffffffffffffffffffffffffffffffffffff1916148061039e575061039d82610c4a565b5b9050919050565b6000806000838152602001908152602001600020600101549050919050565b6103cd826103a5565b6103d681610cb4565b6103e08383610cc8565b50505050565b60035481565b6103f4610db9565b73ffffffffffffffffffffffffffffffffffffffff168173ffffffffffffffffffffffffffffffffffffffff1614610458576040517f6697b23200000000000000000000000000000000000000000000000000000000815260040160405180910390fd5b6104628282610dc1565b505050565b3373ffffffffffffffffffffffffffffffffffffffff16600260009054906101000a900473ffffffffffffffffffffffffffffffffffffffff1673ffffffffffffffffffffffffffffffffffffffff16636352211e866040518263ffffffff1660e01b81526004016104d9919061113a565b602060405180830381865afa1580156104f6573d6000803e3d6000fd5b505050506040513d601f19601f8201168201806040525081019061051a9190611322565b73ffffffffffffffffffffffffffffffffffffffff1614610570576040517f08c379a0000000000000000000000000000000000000000000000000000000008152600401610567906113ac565b60405180910390fd5b600260009054906101000a900473ffffffffffffffffffffffffffffffffffffffff1673ffffffffffffffffffffffffffffffffffffffff166323b872dd3330876040518463ffffffff1660e01b81526004016105cf939291906113cc565b600060405180830381600087803b1580156105e957600080fd5b505af11580156105fd573d6000803e3d6000fd5b505050506040518060e001604052803373ffffffffffffffffffffffffffffffffffffffff168152602001858152602001848152602001838152602001828152602001600081526020016000151581525060016000600354815260200190815260200160002060008201518160000160006101000a81548173ffffffffffffffffffffffffffffffffffffffff021916908373ffffffffffffffffffffffffffffffffffffffff1602179055506020820151816001015560408201518160020155606082015181600301556080820151816004015560a0820151816005015560c08201518160060160006101000a81548160ff0219169083151502179055509050507f68595dbe887ae7f496f2c88735019a8918919a1decfdee6bdb460480ab87decb6003543386866040516107369493929190611403565b60405180910390a16003600081548092919061075190611477565b919050555050505050565b600080600084815260200190815260200160002060000160008373ffffffffffffffffffffffffffffffffffffffff1673ffffffffffffffffffffffffffffffffffffffff16815260200190815260200160002060009054906101000a900460ff16905092915050565b6000801b81565b6000801b6107da81610cb4565b60006001600084815260200190815260200160002090508060060160009054906101000a900460ff1615610843576040517f08c379a000000000000000000000000000000000000000000000000000000000815260040161083a9061150b565b60405180910390fd5b60018160060160006101000a81548160ff0219169083151502179055504281600501819055508060000160009054906101000a900473ffffffffffffffffffffffffffffffffffffffff1673ffffffffffffffffffffffffffffffffffffffff166108fc82600201549081150290604051600060405180830381858888f193505050501580156108d7573d6000803e3d6000fd5b507f073e754af3e7d644af8000094f3c23bc20ef9c40cc057bffa060b0230adf00f483604051610907919061113a565b60405180910390a1505050565b60006001600083815260200190815260200160002090508060060160009054906101000a900460ff1661097c576040517f08c379a000000000000000000000000000000000000000000000000000000000815260040161097390611577565b60405180910390fd5b8060000160009054906101000a900473ffffffffffffffffffffffffffffffffffffffff1673ffffffffffffffffffffffffffffffffffffffff163373ffffffffffffffffffffffffffffffffffffffff1614610a0e576040517f08c379a0000000000000000000000000000000000000000000000000000000008152600401610a05906115e3565b60405180910390fd5b6000610a27826002015483600301548460040154610eb3565b90506000818360020154610a3b9190611603565b905080341015610a80576040517f08c379a0000000000000000000000000000000000000000000000000000000008152600401610a7790611683565b60405180910390fd5b60008360060160006101000a81548160ff021916908315150217905550600260009054906101000a900473ffffffffffffffffffffffffffffffffffffffff1673ffffffffffffffffffffffffffffffffffffffff166323b872dd308560000160009054906101000a900473ffffffffffffffffffffffffffffffffffffffff1686600101546040518463ffffffff1660e01b8152600401610b24939291906113cc565b600060405180830381600087803b158015610b3e57600080fd5b505af1158015610b52573d6000803e3d6000fd5b505050507f9a7851747cd7ffb3fe0a32caf3da48b31f27cebe131267051640f8b72fc4718684604051610b85919061113a565b60405180910390a150505050565b600260009054906101000a900473ffffffffffffffffffffffffffffffffffffffff1681565b610bc2826103a5565b610bcb81610cb4565b610bd58383610dc1565b50505050565b60016020528060005260406000206000915090508060000160009054906101000a900473ffffffffffffffffffffffffffffffffffffffff16908060010154908060020154908060030154908060040154908060050154908060060160009054906101000a900460ff16905087565b60007f01ffc9a7000000000000000000000000000000000000000000000000000000007bffffffffffffffffffffffffffffffffffffffffffffffffffffffff1916827bffffffffffffffffffffffffffffffffffffffffffffffffffffffff1916149050919050565b610cc581610cc0610db9565b610ee5565b50565b6000610cd4838361075c565b610dae57600160008085815260200190815260200160002060000160008473ffffffffffffffffffffffffffffffffffffffff1673ffffffffffffffffffffffffffffffffffffffff16815260200190815260200160002060006101000a81548160ff021916908315150217905550610d4b610db9565b73ffffffffffffffffffffffffffffffffffffffff168273ffffffffffffffffffffffffffffffffffffffff16847f2f8788117e7eff1d82e926ec794901d17c78024a50270940304540a733656f0d60405160405180910390a460019050610db3565b600090505b92915050565b600033905090565b6000610dcd838361075c565b15610ea857600080600085815260200190815260200160002060000160008473ffffffffffffffffffffffffffffffffffffffff1673ffffffffffffffffffffffffffffffffffffffff16815260200190815260200160002060006101000a81548160ff021916908315150217905550610e45610db9565b73ffffffffffffffffffffffffffffffffffffffff168273ffffffffffffffffffffffffffffffffffffffff16847ff6391f5c32d9c69d2a47ea670b442974b53935d1edc7fd64eb21e047a839171b60405160405180910390a460019050610ead565b600090505b92915050565b600064496cebb800828486610ec891906116a3565b610ed291906116a3565b610edc9190611714565b90509392505050565b610eef828261075c565b610f325780826040517fe2517d3f000000000000000000000000000000000000000000000000000000008152600401610f29929190611745565b60405180910390fd5b5050565b600080fd5b60007fffffffff0000000000000000000000000000000000000000000000000000000082169050919050565b610f7081610f3b565b8114610f7b57600080fd5b50565b600081359050610f8d81610f67565b92915050565b600060208284031215610fa957610fa8610f36565b5b6000610fb784828501610f7e565b91505092915050565b60008115159050919050565b610fd581610fc0565b82525050565b6000602082019050610ff06000830184610fcc565b92915050565b6000819050919050565b61100981610ff6565b811461101457600080fd5b50565b60008135905061102681611000565b92915050565b60006020828403121561104257611041610f36565b5b600061105084828501611017565b91505092915050565b61106281610ff6565b82525050565b600060208201905061107d6000830184611059565b92915050565b600073ffffffffffffffffffffffffffffffffffffffff82169050919050565b60006110ae82611083565b9050919050565b6110be816110a3565b81146110c957600080fd5b50565b6000813590506110db816110b5565b92915050565b600080604083850312156110f8576110f7610f36565b5b600061110685828601611017565b9250506020611117858286016110cc565b9150509250929050565b6000819050919050565b61113481611121565b82525050565b600060208201905061114f600083018461112b565b92915050565b61115e81611121565b811461116957600080fd5b50565b60008135905061117b81611155565b92915050565b6000806000806080858703121561119b5761119a610f36565b5b60006111a98782880161116c565b94505060206111ba8782880161116c565b93505060406111cb8782880161116c565b92505060606111dc8782880161116c565b91505092959194509250565b6000602082840312156111fe576111fd610f36565b5b600061120c8482850161116c565b91505092915050565b6000819050919050565b600061123a61123561123084611083565b611215565b611083565b9050919050565b600061124c8261121f565b9050919050565b600061125e82611241565b9050919050565b61126e81611253565b82525050565b60006020820190506112896000830184611265565b92915050565b611298816110a3565b82525050565b600060e0820190506112b3600083018a61128f565b6112c0602083018961112b565b6112cd604083018861112b565b6112da606083018761112b565b6112e7608083018661112b565b6112f460a083018561112b565b61130160c0830184610fcc565b98975050505050505050565b60008151905061131c816110b5565b92915050565b60006020828403121561133857611337610f36565b5b60006113468482850161130d565b91505092915050565b600082825260208201905092915050565b7f4e6f7420746f6b656e206f776e65720000000000000000000000000000000000600082015250565b6000611396600f8361134f565b91506113a182611360565b602082019050919050565b600060208201905081810360008301526113c581611389565b9050919050565b60006060820190506113e1600083018661128f565b6113ee602083018561128f565b6113fb604083018461112b565b949350505050565b6000608082019050611418600083018761112b565b611425602083018661128f565b611432604083018561112b565b61143f606083018461112b565b95945050505050565b7f4e487b7100000000000000000000000000000000000000000000000000000000600052601160045260246000fd5b600061148282611121565b91507fffffffffffffffffffffffffffffffffffffffffffffffffffffffffffffffff82036114b4576114b3611448565b5b600182019050919050565b7f4c6f616e20616c72656164792061637469766500000000000000000000000000600082015250565b60006114f560138361134f565b9150611500826114bf565b602082019050919050565b60006020820190508181036000830152611524816114e8565b9050919050565b7f4c6f616e206e6f74206163746976650000000000000000000000000000000000600082015250565b6000611561600f8361134f565b915061156c8261152b565b602082019050919050565b6000602082019050818103600083015261159081611554565b9050919050565b7f4e6f7420626f72726f7765720000000000000000000000000000000000000000600082015250565b60006115cd600c8361134f565b91506115d882611597565b602082019050919050565b600060208201905081810360008301526115fc816115c0565b9050919050565b600061160e82611121565b915061161983611121565b925082820190508082111561163157611630611448565b5b92915050565b7f496e73756666696369656e742072657061796d656e7420616d6f756e74000000600082015250565b600061166d601d8361134f565b915061167882611637565b602082019050919050565b6000602082019050818103600083015261169c81611660565b9050919050565b60006116ae82611121565b91506116b983611121565b92508282026116c781611121565b915082820484148315176116de576116dd611448565b5b5092915050565b7f4e487b7100000000000000000000000000000000000000000000000000000000600052601260045260246000fd5b600061171f82611121565b915061172a83611121565b92508261173a576117396116e5565b5b828204905092915050565b600060408201905061175a600083018561128f565b6117676020830184611059565b939250505056fea2646970667358221220e860aa9c13a8f9ffde6d6d038cdff88e44c24944fd4864833f09f14e7ecbe5b364736f6c63430008180033",
  "linkReferences": {},
  "deployedLinkReferences": {}
}